:020000040000FA
:0600000075EF02F0120092
:0A00060001003A0500006000000050
:0400100020000000CC
:0C001400D9CFE6FFE1CFD9FFFE0EDB5094
:10002000010BE8B08A80E8A08A90FE0EDB407F0BCF
:10003000010BE8B08A82E8A08A92FE0EDB40E8401D
:100040003F0B010BE8B08A84E8A08A94FE0EDB40E7
:10005000E840E8401F0B010BE8B08A86E8A08A96CA
:10006000E552E7CFD9FF1200D9CFE6FFE1CFD9FFA4
:100070008A50100B01E0010E006EFE0EDB50005C9A
:1000800006E0FE0EDB50E8B08A88E8A08A988A8AEB
:10009000050EE66E91EC02F0E5528A9A8A98180EE7
:1000A000E66E55EC02F0E552E552E7CFD9FF1200BB
:1000B000D9CFE6FFE1CFD9FF020EE126FE0EDB50DD
:1000C0000F0BDF6EFE0EDB380F0B0F0BE76E010E12
:1000D000E7CFDBFFDBCFE6FF9DDFE552010EE66EEB
:1000E000C3DFE552DFCFE6FF95DFE552010EE66E96
:1000F000BBDFE552020EE15C02E2E16AE552E16E2D
:10010000E552E7CFD9FF1200D9CFE6FFE1CFD9FF03
:10011000020EE126DE6ADD6AFD0EDBCF00F0FE0E88
:10012000DBCF01F0DE500024E96EDD500120EA6EE5
:10013000EF5015E0FD0EDBCF00F0FE0EDBCF01F03F
:10014000DE500024E96EDD500120EA6EEF50E66ECD
:10015000AFDFE552DF2A010E01E3DB2ADDD7020E15
:10016000E15C02E2E16AE552E16EE552E7CFD9FFD8
:100170001200D9CFE6FFE1CFD9FF020EE126FE0E35
:10018000DB380F0B0F0BE76E010EE7CFDBFFFE0E28
:10019000DB500F0BDF6E010EDBCFE6FF3BDFE552DE
:1001A000E66A62DFE552DFCFE6FF34DFE552E66A5A
:1001B0005BDFE552020EE15C02E2E16AE552E16ECC
:1001C000E552E7CFD9FF1200D9CFE6FFE1CFD9FF43
:1001D000FB0EDBCFE6FFFC0EDBCFE6FFFD0EDBCF39
:1001E000E6FFFE0EDBCFE6FF53D8E552E552E552BF
:1001F000E552FA0EDBCFE6FF5BDFE552E552E7CFD3
:10020000D9FF1200D9CFE6FFE1CFD9FF020EE126D8
:10021000DE6ADD6AFB0EDBCFE6FFFC0EDBCFE6FF1E
:10022000FD0EDBCFE6FFFE0EDBCFE6FF31D8E55259
:10023000E552E552E552F90EDBCF00F0FA0EDBCFC6
:1002400001F0DE500024E96EDD500120EA6EEF502F
:1002500015E0F90EDBCF00F0FA0EDBCF01F0DE5037
:100260000024E96EDD500120EA6EEF50E66E20DFDB
:10027000E552DF2A010E01E3DB2ADDD7020EE15C45
:1002800002E2E16AE552E16EE552E7CFD9FF1200E2
:10029000D9CFE6FFE1CFD9FFE652020EE66E69DF65
:1002A000E552FD0EDBCF00F0FE0EDBCF01F0020EBB
:1002B000005C000E015804E3C00EE66E5ADFE55202
:1002C000D950FB0FE96EFF0EDA20EA6E100ED880CF
:1002D000EE54000EED5407E2110EF36EFB0EF3CF59
:1002E000DBFFFC0EDB6A010EDF6EDFCF00F0016A80
:1002F00000BE0168FB0EDBCF02F0FC0EDBCF03F08B
:100300000250005C0350015806E2140EE66E31DF25
:10031000E552DF2AEAD7E552E552E7CFD9FF1200CE
:10032000B50EE66E55EC02F0E552030EE66E72DE97
:10033000E552E66A99DEE5523D0EE66E55EC02F0B6
:10034000E552030EE66E66DEE552E66A8DDEE552A4
:10035000300EE66E83EC02F0E552030EE66E5ADED6
:10036000E552E66A81DEE552020EE66E53DEE552A4
:10037000E66A7ADEE552040EE66EFBDEE5520C0E0E
:10038000E66EF7DEE552280EE66EF3DEE552010E6C
:08039000E66EEFDEE5521200FB
:08039800060EF66E000EF76E72
:1003A000000EF86E00010900F550856F0900F55048
:1003B000866F03E1856701D03DD00900F550806F5D
:1003C0000900F550816F0900F550826F090009009E
:1003D000F550E96E0900F550EA6E090009000900C0
:1003E000F550836F0900F550846F09000900F6CFBE
:1003F00087F0F7CF88F0F8CF89F080C0F6FF81C092
:10040000F7FF82C0F8FF0001835302E1845307E045
:100410000900F550EE6E8307F8E28407F9D787C02C
:10042000F6FF88C0F7FF89C0F8FF00018507000EBE
:06043000865BBFD712003D
:0A043600070EB4120F0EC112C00E23
:10044000936E90EC01F0640EE66E58EC00F0E5520D
:10045000600EE66E000EE66E84EC00F0E552E552AA
:100460001C0EE66EB9EC00F0E552440EE66E030E8B
:10047000E66EE66A020EE66EE66AE4EC00F0006EF6
:10048000050EE15E0050700EE66E000EE66E050E83
:10049000E66EE66A020EE66EE66A02EC01F0006EB7
:0A04A000060EE15E0050FFD71200C7
:0604AA00FF0EE350066E98
:1004B000480E01D04C0EE76EE72EFED7E76AE72E16
:0A04C000FED7062EF7D70000120049
:0604CA00000EF36E00EECF
:1004D00000F0040E01D81200EA6002D0EE6AFCD7E8
:0A04E000F350E9601200EE6AFCD749
:0604EA0012EE00F022EE0C
:1004F00000F0F86A059CCCEC01F09CEC02F01BECDF
:0605000002F0FBD712001F
:0A050600FF0EE350066E1B0E00D03E
:1005100001D0200EE76EE72EFED7062EFAD700D0C8
:020520001200C7
:0E052200FF0EE350E84E1200000000D000D0A3
:0805300000D0E82EFAD71200FA
:020538001200AF
:06053A0020202020454EA8
:1005400053494341454E202020204269656E76651F
:0A0550006E75652061206C27454E92
:020000040030CA
:0100000001FE
:010001000EF0
:0100020019E4
:010003001EDE
:010005008377
:00000001FF
