:020000040000FA
:060000003AEF04F01200CB
:0A0006000100C208000060000000C5
:0400100031000000BB
:020014001200D8
:060018000FEF00F01200E2
:02001E00D8CF39
:10002000E4FFE0CFE4FFE46EDACFE4FFE2CFDAFFF3
:10003000E652F2A423D00C0ED66E00019051080AAD
:1000400010E00C0A0BE0060A06E0030A01E00CD0FF
:10005000100E8C6E0AD0200E8C6E07D0400E8C6E67
:1000600004D0800E8C6E01D08C6A080E905D03E186
:10007000010E906F02D0909F9047F294E552E5CF29
:10008000DAFFE550E5CFE0FFE5CFD8FF1000170E0F
:10009000D56ED7680C0ED66ED08EF194F28AF2949B
:1000A000D58EF28CF28E12008A6AC00E936E8A6A26
:1000B0008C6A070E956E8C6A1200D9CFE6FFE1CFED
:1000C000D9FF050EE126010EDB6A030EDB6A040E82
:1000D000DB6A070EB4120F0EC112E6DFD8DF5AEC4E
:1000E00003F0600EE66E000EE66E020EE66EE66A45
:1000F000010EE66EE66ACCEC02F0146E060EE15ECE
:100100001450070E831401E144D1F29C020E83CFF8
:10011000DBFFDB50840A37E0060A33E0030A2EE0F7
:10012000C50A29E0060A24E0030A1FE0650A1AE06E
:10013000060A15E0030A10E0350A0BE0060A06E09D
:10014000030A01E023D0010EDF6E22D0020EDF6E23
:100150001FD0030EDF6E1CD0040EDF6E19D0050E0B
:10016000DF6E16D0060EDF6E13D0070EDF6E10D0D6
:10017000080EDF6E0DD0090EDF6E0AD00F0EDF6E97
:1001800007D0DF6A05D00F0EDF6E02D00F0EDF6ED4
:10019000040EF36E010EDBCFF4FFF350F45C13E2B8
:1001A0002A0EE66E010EDB50070FE66EE66A020EBF
:1001B000E66EE66AAEEC02F0146E050EE15E1450D7
:1001C000010EDB2A12D0700EE66E000EE66E070EF0
:1001D000E66EE66A020EE66EE66ACCEC02F0146E9B
:1001E000060EE15E1450010EDB6A0F0EDF5C12E1B9
:1001F000700EE66E000EE66E070EE66EE66A020E02
:10020000E66EE66ACCEC02F0146E060EE15E145067
:10021000010EDB6A010EDB5005E1030EDB6A040E02
:10022000DB6A1AD0DF50166E176A0A0E086E096A6A
:10023000030EDBCF0DF0040EDBCF0EF0E5EC03F088
:1002400006501624146E07501720156E030E14C0A6
:10025000DBFF040E15C0DBFFD950030FE96EDACFC8
:10026000EAFFD40EEE1802E1050EED1801E08BD086
:10027000010EDB50040801E086D0F00EE66E03ECC0
:1002800004F0E552030EDB6A040EDB6A010EDB6A42
:10029000700EE66E000EE66E070EE66EE66A020E61
:1002A000E66EE66ACCEC02F0146E060EE15E1450C7
:1002B000800EE66E000EE66E070EE66EE66A020E31
:1002C000E66EE66ACCEC02F0146E060EE15E1450A7
:1002D000F00EE66E03EC04F0E552F00EE66E03EC71
:1002E00004F0E552F00EE66E03EC04F0E552F00E79
:1002F000E66E03EC04F0E552F00EE66E03EC04F05B
:10030000E552F00EE66E03EC04F0E552F00EE66EF8
:1003100003EC04F0E552F00EE66E03EC04F0E55257
:10032000F00EE66E03EC04F0E552F00EE66E03EC20
:1003300004F0E552F00EE66E03EC04F0E552F00E28
:10034000E66E03EC04F0E552F00EE66E03EC04F00A
:10035000E552F00EE66E03EC04F0E552F00EE66EA8
:1003600003EC04F0E552700EE66E000EE66E070E2A
:10037000E66EE66A020EE66EE66ACCEC02F0146EF9
:10038000060EE15E1450020EDB50835C01E1FBD7E8
:10039000F28CB7D6050EE15C02E2E16AE552E16E4D
:0803A000E552E7CFD9FF12007E
:0803A800D9CFE6FFE1CFD9FF38
:1003B000FE0EDB50010BE8B08A80E8A08A90FE0EAA
:1003C000DB407F0B010BE8B08A82E8A08A92FE0E28
:1003D000DB40E8403F0B010BE8B08A84E8A08A9438
:1003E000FE0EDB40E840E8401F0B010BE8B08A86B8
:1003F000E8A08A96E552E7CFD9FF1200D9CFE6FFF1
:10040000E1CFD9FF8A50100B01E0010E146EFE0EF1
:10041000DB50145C06E0FE0EDB50E8B08A88E8A0F2
:100420008A988A8A050EE66E56EC04F0E5528A9A9E
:100430008A98180EE66E1AEC04F0E552E552E7CF02
:10044000D9FF1200D9CFE6FFE1CFD9FF020EE12696
:10045000FE0EDB500F0BDF6EFE0EDB380F0B0F0BAB
:10046000E76E010EE7CFDBFFDBCFE6FF9DDFE55256
:10047000010EE66EC3DFE552DFCFE6FF95DFE55202
:10048000010EE66EBBDFE552020EE15C02E2E16ABC
:10049000E552E16EE552E7CFD9FF1200D9CFE6FF72
:1004A000E1CFD9FF020EE126DE6ADD6AFD0EDBCF69
:1004B00014F0FE0EDBCF15F0DE501424E96EDD5093
:1004C0001520EA6EEF5015E0FD0EDBCF14F0FE0EA6
:1004D000DBCF15F0DE501424E96EDD501520EA6EF6
:1004E000EF50E66EAFDFE552DF2A010E01E3DB2AB3
:1004F000DDD7020EE15C02E2E16AE552E16EE5520F
:10050000E7CFD9FF1200D9CFE6FFE1CFD9FF020E26
:10051000E126FE0EDB380F0B0F0BE76E010EE7CF67
:10052000DBFFFE0EDB500F0BDF6E010EDBCFE6FFB5
:100530003BDFE552E66A62DFE552DFCFE6FF34DFFC
:10054000E552E66A5BDFE552020EE15C02E2E16A37
:10055000E552E16EE552E7CFD9FF1200D9CFE6FFB1
:10056000E1CFD9FFFB0EDBCFE6FFFC0EDBCFE6FFD2
:10057000FD0EDBCFE6FFFE0EDBCFE6FF53D8E552E4
:10058000E552E552E552FA0EDBCFE6FF5BDFE552BE
:10059000E552E7CFD9FF1200D9CFE6FFE1CFD9FF6F
:1005A000020EE126DE6ADD6AFB0EDBCFE6FFFC0E03
:1005B000DBCFE6FFFD0EDBCFE6FFFE0EDBCFE6FF77
:1005C00031D8E552E552E552E552F90EDBCF14F091
:1005D000FA0EDBCF15F0DE501424E96EDD50152045
:1005E000EA6EEF5015E0F90EDBCF14F0FA0EDBCF18
:1005F00015F0DE501424E96EDD501520EA6EEF5040
:10060000E66E20DFE552DF2A010E01E3DB2ADDD7AB
:10061000020EE15C02E2E16AE552E16EE552E7CFEB
:10062000D9FF1200D9CFE6FFE1CFD9FFE652020E83
:10063000E66E69DFE552FD0EDBCF14F0FE0EDBCF78
:1006400015F0020E145C000E155804E3C00EE66EA1
:100650005ADFE552D950FB0FE96EFF0EDA20EA6E41
:10066000100ED880EE54000EED5407E2110EF36E1A
:10067000FB0EF3CFDBFFFC0EDB6A010EDF6EDFCF7C
:1006800014F0156A14BE1568FB0EDBCF16F0FC0ED5
:10069000DBCF17F01650145C1750155806E2140EF5
:1006A000E66E31DFE552DF2AEAD7E552E552E7CFC1
:1006B000D9FF1200B50EE66E1AEC04F0E552030EF7
:1006C000E66E72DEE552E66A99DEE5523D0EE66EB2
:1006D0001AEC04F0E552030EE66E66DEE552E66AB9
:1006E0008DDEE552300EE66E48EC04F0E552030E66
:1006F000E66E5ADEE552E66A81DEE552020EE66EED
:1007000053DEE552E66A7ADEE552040EE66EFBDE63
:10071000E5520C0EE66EF7DEE552280EE66EF3DECD
:0C072000E552010EE66EEFDEE55212001D
:04072C00060EF66E51
:10073000000EF76E000EF86E00010900F550966F7E
:100740000900F550976F03E1966701D03DD009008D
:10075000F550916F0900F550926F0900F550936FB5
:1007600009000900F550E96E0900F550EA6E09002C
:1007700009000900F550946F0900F550956F0900C4
:100780000900F6CF98F0F7CF99F0F8CF9AF091C022
:10079000F6FF92C0F7FF93C0F8FF0001945302E107
:1007A000955307E00900F550EE6E9407F8E29507BF
:1007B000F9D798C0F6FF99C0F7FF9AC0F8FF00017B
:0A07C0009607000E975BBFD71200EA
:0607CA0008C012F0085007
:1007D0000D02F4CF07F0F3CF06F009500E02F4CF6C
:1007E00009F0F3CF08F00D02F3500726F450082269
:1007F000E86A092212500E02F3500726F45008222C
:06080000E86A0922000C69
:0A080600FF0EE350196EEF0E01D053
:10081000F30EE76EE72E0AEF04F00C0E186EE76A8F
:10082000E72E10EF04F0182E0FEF04F0192E08EF4A
:0408300004F01200BE
:0C083400FF0EE350196E480E01D04C0E70
:10084000E76EE72EFED7E76AE72EFED7192EF7D719
:040850000000120092
:0C085400000EF36E00EE00F0040E01D860
:100860001200EA6002D0EE6AFCD7F350E960120091
:04087000EE6AFCD759
:0C08740012EE00F022EE00F0F86A019C89
:1008800096EC03F00AEC00F05DEC00F0FBD71200F0
:10089000FF0EE350196E1B0E00D001D0200EE76E44
:0C08A000E72EFED7192EFAD700D0120068
:0408AC00FF0EE35008
:1008B000E84E1200000000D000D000D0E82EFAD799
:0208C000120024
:0E08C20053616973697220636F6465203A00A8
:1008D000000020202020000101010101010101018F
:1008E00001014F70656E000101010101010101016B
:0308F00001010102
:020000040030CA
:0100000001FE
:010001000EF0
:0100020019E4
:010003001EDE
:010005008377
:00000001FF
