:020000040000FA
:06000000DAEF03F012002C
:020006001200E6
:06000800D0EF01F0120030
:02000E000100EF
:0C00100002080000920000000300000045
:04001C00D9CFE6FF53
:10002000E1CFD9FFFE0EDB50010BE8B08A80E8A0DB
:100030008A90FE0EDB407F0B010BE8B08A82E8A0BD
:100040008A92FE0EDB40E8403F0B010BE8B08A8449
:10005000E8A08A94FE0EDB40E840E8401F0B010B4D
:10006000E8B08A86E8A08A96E552E7CFD9FF120069
:10007000D9CFE6FFE1CFD9FF8A50100B01E0010E86
:10008000006EFE0EDB50005C06E0FE0EDB50E8B0BA
:100090008A88E8A08A988A8A050EE66EF6EC03F054
:1000A000E5528A9A8A98180EE66EBAEC03F0E55289
:1000B000E552E7CFD9FF1200D9CFE6FFE1CFD9FF54
:1000C000020EE126FE0EDB500F0BDF6EFE0EDB385C
:1000D0000F0B0F0BE76E010EE7CFDBFFDBCFE6FF69
:1000E0009DDFE552010EE66EC3DFE552DFCFE6FF8E
:1000F00095DFE552010EE66EBBDFE552020EE15CD4
:1001000002E2E16AE552E16EE552E7CFD9FF120063
:10011000D9CFE6FFE1CFD9FF020EE126DE6ADD6A24
:10012000FD0EDBCF00F0FE0EDBCF01F0DE50002431
:10013000E96EDD500120EA6EEF5015E0FD0EDBCFD9
:1001400000F0FE0EDBCF01F0DE500024E96EDD5042
:100150000120EA6EEF50E66EAFDFE552DF2A010EB6
:1001600001E3DB2ADDD7020EE15C02E2E16AE5523F
:10017000E16EE552E7CFD9FF1200D9CFE6FFE1CF1C
:10018000D9FF020EE126FE0EDB380F0B0F0BE76ED8
:10019000010EE7CFDBFFFE0EDB500F0BDF6E010E13
:1001A000DBCFE6FF3BDFE552E66A62DFE552DFCFF9
:1001B000E6FF34DFE552E66A5BDFE552020EE15C02
:1001C00002E2E16AE552E16EE552E7CFD9FF1200A3
:1001D000D9CFE6FFE1CFD9FFFB0EDBCFE6FFFC0E68
:1001E000DBCFE6FFFD0EDBCFE6FFFE0EDBCFE6FF4B
:1001F00053D8E552E552E552E552FA0EDBCFE6FF61
:100200005BDFE552E552E7CFD9FF1200D9CFE6FF19
:10021000E1CFD9FF020EE126DE6ADD6AFB0EDBCFFD
:10022000E6FFFC0EDBCFE6FFFD0EDBCFE6FFFE0EAA
:10023000DBCFE6FF31D8E552E552E552E552F90E43
:10024000DBCF00F0FA0EDBCF01F0DE500024E96EC8
:10025000DD500120EA6EEF5015E0F90EDBCF00F023
:10026000FA0EDBCF01F0DE500024E96EDD500120F4
:10027000EA6EEF50E66E20DFE552DF2A010E01E361
:10028000DB2ADDD7020EE15C02E2E16AE552E16EB3
:10029000E552E7CFD9FF1200D9CFE6FFE1CFD9FF72
:1002A000E652020EE66E69DFE552FD0EDBCF00F08E
:1002B000FE0EDBCF01F0020E005C000E015804E3DD
:1002C000C00EE66E5ADFE552D950FB0FE96EFF0E05
:1002D000DA20EA6E100ED880EE54000EED5407E2DC
:1002E000110EF36EFB0EF3CFDBFFFC0EDB6A010E8B
:1002F000DF6EDFCF00F0016A00BE0168FB0EDBCFCE
:1003000002F0FC0EDBCF03F00250005C03500158FA
:1003100006E2140EE66E31DFE552DF2AEAD7E55237
:10032000E552E7CFD9FF1200B50EE66EBAEC03F046
:10033000E552030EE66E72DEE552E66A99DEE5529C
:100340003D0EE66EBAEC03F0E552030EE66E66DE95
:10035000E552E66A8DDEE552300EE66EE8EC03F01B
:10036000E552030EE66E5ADEE552E66A81DEE5529C
:10037000020EE66E53DEE552E66A7ADEE552040EC0
:10038000E66EFBDEE5520C0EE66EF7DEE552280E59
:10039000E66EF3DEE552010EE66EEFDEE552120088
:1003A000DACFE4FFE2CFDAFFE9CFE4FFEACFE4FF00
:1003B000E6529EAA0FD09E9A00019251EA6A600FFF
:1003C000E96E000EEA22AECFEFFF9251922B280881
:1003D00001E1926BE552E5CFEAFFE5CFE9FFE5CF1A
:1003E000DAFF1100B06A670EAF6EB886240EAC6EED
:1003F000900EAB6E9D8A9D989E9A9F8A1200D9CFCF
:10040000E6FFE1CFD9FFE65200019251935D01E191
:10041000FBD79351EA6A600FE96E000EEA22EFCF34
:10042000DFFF9351932B280801E1936BDF5000D03D
:10043000E552E552E7CFD9FF1200D9CFE6FFE1CF71
:10044000D9FFE652DCDFDF6E0D080CE0FD0EDBCFDE
:10045000E9FFDB2AFE0EDBCFEAFF01E3DB2ADFCF79
:10046000EFFFF0D7FD0EDBCFE9FFFE0EDBCFEAFF9B
:10047000EF6AE552E552E7CFD9FF1200D9CFE6FF88
:10048000E1CFD9FFACA2FED7FE0EDB50AD6EE55238
:10049000E7CFD9FF1200D9CFE6FFE1CFD9FFFD0E9C
:1004A000DBCFF6FFFE0EDBCFF7FF0800F5500FE0C5
:1004B000FD0EDBCFF6FFDB2AFE0EDBCFF7FF01E3FD
:1004C000DB2A0800F550E66ED9DFE552E8D7E552A1
:1004D000E7CFD9FF1200CD0EE66E060EE66EDBDF2B
:1004E000E552E5525A0EE66E050EE66ED4DFE55291
:1004F000E552CD0EE66E060EE66ECDDFE552E55214
:10050000C30EE66E060EE66EC6DFE552E552120039
:10051000D9CFE6FFE1CFD9FFE652070EB4120F0E96
:10052000C112D08E5FDFF28E00019351925D0FE019
:1005300066DFDF6EDFCFE6FFA1DFE552D20EE66EAB
:10054000060EE66EA8DFE552E5520001946BECD78B
:0A055000E552E552E7CFD9FF120093
:06055A00456E7472657A23
:1005600020756E6520636F6D6D616E64652061201E
:10057000656E766F796572206175204449474943FD
:100580004F4445203A0A0D0A0D202052203A2052AD
:10059000657365742064752044494749434F444559
:1005A000200A0D202043203A204368616E67656D64
:1005B000656E7420647520434F4445200A0D202049
:1005C0004D203A204368616E67656D656E742064E6
:1005D00075206D657373616765206427616363755A
:1005E00065696C206475204C4344200A0D005265F7
:1005F000736574206475204D6963726F2D636F6E2F
:100600007472F46C6575722065666665637475E96D
:1006100020210045727265757220646520736169DE
:10062000736965202D20496C206E652073276167F2
:10063000697420706173206427756E6520636F6D27
:100640006D616E646520210045727265757220646B
:100650006520736169736965202D20456E7472652C
:100660007A20756E20636F646520E0203420636813
:100670006966667265732021004572726575722025
:10068000646520736169736965202D20456E7472FD
:10069000657A20756E206D6573736167652064658A
:1006A00020313620636172616374E8726573206D76
:1006B0006178696D756D20210053616973696520EA
:1006C0003A20002043686F6978203A20000A0D0A1A
:0506D0000D000A0D0001
:0A06D6000E0EF66E000EF76E000E19
:1006E000F86E00010900F5508D6F0900F5508E6F0E
:1006F00003E18D6701D03DD00900F550886F0900F6
:10070000F550896F0900F5508A6F09000900F5500E
:10071000E96E0900F550EA6E090009000900F5507C
:100720008B6F0900F5508C6F09000900F6CF8FF030
:10073000F7CF90F0F8CF91F088C0F6FF89C0F7FFAF
:100740008AC0F8FF00018B5302E18C5307E00900D7
:10075000F550EE6E8B07F8E28C07F9D78FC0F6FFE5
:1007600090C0F7FF91C0F8FF00018D07000E8E5B6F
:04077000BFD71200DD
:0C077400FF0EE350066E480E01D04C0E44
:10078000E76EE72EFED7E76AE72EFED7062EF7D7ED
:040790000000120053
:0C079400000EF36E00EE00F0040E01D821
:1007A0001200EA6002D0EE6AFCD7F350E960120052
:0407B000EE6AFCD71A
:0C07B40013EE00F023EE00F0F86A059C44
:1007C0006BEC03F003EC00F088EC02F0FBD71200B6
:1007D000FF0EE350066E1B0E00D001D0200EE76E18
:0C07E000E72EFED7062EFAD700D012003C
:0407EC00FF0EE350C9
:1007F000E84E1200000000D000D000D0E82EFAD75A
:020800001200E4
:03080200000000F3
:020000040030CA
:0100000001FE
:010001000EF0
:0100020019E4
:010003001EDE
:010005008377
:00000001FF
