:020000040000FA
:06000000F2EF06F0120011
:020006001200E6
:060008004EEF00F01200B3
:0600180016EF00F01200DB
:02001E000100DF
:0C0020004E0E00006000000036000000E2
:04002C00D8CFE4FF46
:10003000E0CFE4FFE46EDACFE4FFE2CFDAFFE6528E
:10004000F2A423D00C0ED66E00019551080A10E0E0
:100050000C0A0BE0060A06E0030A01E00CD0100EC1
:100060008C6E0AD0200E8C6E07D0400E8C6E04D0A1
:10007000800E8C6E01D08C6A080E955D03E1010E36
:10008000956F02D0959F9547F294E552E5CFDAFF40
:10009000E550E5CFE0FFE5CFD8FF1000DACFE4FF71
:1000A000E2CFDAFFE9CFE4FFEACFE4FFE6529EAA0F
:1000B0000FD09E9A00019251EA6A960FE96E000EE7
:1000C000EA22AECFEFFF9251922B280801E1926B0A
:1000D000E552E5CFEAFFE5CFE9FFE5CFDAFF110012
:1000E0008A6AC00E936E8A6A8C6A070E956E8C6A55
:1000F0001200170ED56ED7680C0ED66EF194F28AE8
:10010000F294D58EF28C1200B06A670EAF6EB8868C
:10011000240EAC6E900EAB6E9D8A9D989E9A9F8A1F
:100120001200D9CFE6FFE1CFD9FFE652000192518C
:10013000935D01E1FBD79351EA6A960FE96E000ED9
:10014000EA22EFCFDFFF9351932B280801E1936B55
:10015000DF5000D0E552E552E7CFD9FF1200D9CFEA
:10016000E6FFE1CFD9FFE652DCDFDF6E0D080CE0E1
:10017000FD0EDBCFE9FFDB2AFE0EDBCFEAFF01E35A
:10018000DB2ADFCFEFFFF0D7FD0EDBCFE9FFFE0E5E
:10019000DBCFEAFFEF6AE552E552E7CFD9FF120065
:1001A000D9CFE6FFE1CFD9FFACA2FED7FE0EDB50E0
:1001B000AD6EE552E7CFD9FF1200D9CFE6FFE1CF10
:1001C000D9FFFD0EDBCFF6FFFE0EDBCFF7FF0800F9
:1001D000F5500FE0FD0EDBCFF6FFDB2AFE0EDBCF86
:1001E000F7FF01E3DB2A0800F550E66ED9DFE552A0
:1001F000E8D7E552E7CFD9FF1200A90EE66E0B0E45
:10020000E66EDBDFE552E552360EE66E0A0EE66E6E
:10021000D4DFE552E552A90EE66E0B0EE66ECDDF99
:10022000E552E5529F0EE66E0B0EE66EC6DFE55216
:10023000E5521200D9CFE6FFE1CFD9FF0A0EE12641
:10024000010EDB6A030EDB6A040EDB6A070EB412D2
:100250000F0EC112D08E44DF4CDFDFEC04F0600ED5
:10026000E66E000EE66E020EE66EE66A010EE66EC1
:10027000E66A51EC04F0146E060EE15E145044DFA1
:10028000BCDFF28E000193510001925D01E1BBD011
:1002900048DFE76E090EE7CFDBFFA90EE66E0B0E17
:1002A000E66E8BDFE552E552090EDB50430A5EE055
:1002B0000E0A0DE01F0A01E09CD0CA0EE66E0A0E7F
:1002C000E66E7BDFE552E552F2EF06F09AD0950E2E
:1002D000E66E0B0EE66E71DFE552E552070EDBCFE0
:1002E000E6FF080EDBCFE6FF3ADFE552E552070EE8
:1002F000DBCFE6FF080EDBCFE6FF00EC07F0E552B0
:10030000E552F3CF14F0F4CF15F0100ED88014544A
:10031000000E155408E2550EE66E0B0EE66E4DDF2C
:10032000E552E55222D0700EE66E000EE66E010E2A
:10033000E66EE66A010EE66EE66A51EC04F0146EB3
:10034000060EE15E1450070EDBCFE6FF080EDBCF92
:10035000E6FF010EE66EE66A010EE66EE66A51EC15
:1003600004F0146E060EE15E14504BD0950EE66E4E
:100370000B0EE66E22DFE552E552070EDBCFE6FFFD
:10038000080EDBCFE6FFEBDEE552E552070EDBCFD2
:10039000E6FF080EDBCFE6FFD9EC05F0E552E552AB
:1003A000050EF3CFDBFF060EF4CFDBFF070EDBCF2E
:1003B000E6FF080EDBCFE6FF00EC07F0E552E55262
:1003C000F3CF14F0F4CF15F0040ED8801454000EBF
:1003D000155408E2240EE66E0B0EE66EEEDEE552D4
:1003E000E55206D0050EDBCF90F0060EDBCF91F084
:1003F00008D0EF0EE66E0A0EE66EDFDEE552E5523D
:1004000000D0FBDE4BD1070E831401E147D1F29CF3
:10041000020E83CFDBFF020EDB50840A37E0060AB0
:1004200033E0030A2EE0C50A29E0060A24E0030AA5
:100430001FE0650A1AE0060A15E0030A10E0350A13
:100440000BE0060A06E0030A01E023D0010EDF6E8E
:1004500022D0020EDF6E1FD0030EDF6E1CD0040E02
:10046000DF6E19D0050EDF6E16D0060EDF6E13D0CC
:10047000070EDF6E10D0080EDF6E0DD0090EDF6E96
:100480000AD00F0EDF6E07D0DF6A05D00F0EDF6EC9
:1004900002D00F0EDF6E040EF36E010EDBCFF4FF01
:1004A000F350F45C13E22A0EE66E010EDB50070FE8
:1004B000E66EE66A020EE66EE66A33EC04F0146E4F
:1004C000050EE15E1450010EDB2A12D0700EE66EAE
:1004D000000EE66E010EE66EE66A020EE66EE66A53
:1004E00051EC04F0146E060EE15E1450010EDB6A4E
:1004F0000F0EDF5C12E1700EE66E000EE66E010E6E
:10050000E66EE66A020EE66EE66A51EC04F0146EE0
:10051000060EE15E1450010EDB6A010EDB5005E1B0
:10052000030EDB6A040EDB6A1AD0DF50166E176A00
:100530000A0E086E096A030EDBCF0DF0040EDBCF46
:100540000EF09DEC06F006501624146E075017208E
:10055000156E030E14C0DBFF040E15C0DBFF030E87
:10056000DBCF14F0040EDBCF15F00001905114180E
:1005700002E19151151801E08BD0010EDB50040807
:1005800001E086D0F00EE66EBBEC06F0E552030EFD
:10059000DB6A040EDB6A010EDB6A700EE66E000E8B
:1005A000E66E010EE66EE66A020EE66EE66A51EC53
:1005B00004F0146E060EE15E1450800EE66E000E1E
:1005C000E66E070EE66EE66A020EE66EE66A51EC2D
:1005D00004F0146E060EE15E1450F00EE66EBBECF5
:1005E00006F0E552F00EE66EBBEC06F0E552F00EBA
:1005F000E66EBBEC06F0E552F00EE66EBBEC06F0E4
:10060000E552F00EE66EBBEC06F0E552F00EE66E3B
:10061000BBEC06F0E552F00EE66EBBEC06F0E552E0
:10062000F00EE66EBBEC06F0E552F00EE66EBBECAB
:1006300006F0E552F00EE66EBBEC06F0E552F00E69
:10064000E66EBBEC06F0E552F00EE66EBBEC06F093
:10065000E552F00EE66EBBEC06F0E552F00EE66EEB
:10066000BBEC06F0E552F00EE66EBBEC06F0E55290
:10067000700EE66E000EE66E010EE66EE66A020E83
:10068000E66EE66A51EC04F0146E060EE15E14505C
:10069000020EDB50835C01E1FBD7F28CF3D50A0E2E
:1006A000E15C02E2E16AE552E16EE552E7CFD9FF93
:0206B000120036
:0E06B200D9CFE6FFE1CFD9FFFE0EDB50010BE2
:1006C000E8B08A80E8A08A90FE0EDB407F0B010B29
:1006D000E8B08A82E8A08A92FE0EDB40E8403F0B39
:1006E000010BE8B08A84E8A08A94FE0EDB40E84063
:1006F000E8401F0B010BE8B08A86E8A08A96E55215
:10070000E7CFD9FF1200D9CFE6FFE1CFD9FF8A505A
:10071000100B01E0010E146EFE0EDB50145C06E0BF
:10072000FE0EDB50E8B08A88E8A08A988A8A050E17
:10073000E66E1CEC07F0E5528A9A8A98180EE66E6F
:10074000D2EC06F0E552E552E7CFD9FF1200D9CF3F
:10075000E6FFE1CFD9FF020EE126FE0EDB500F0BC4
:10076000DF6EFE0EDB380F0B0F0BE76E010EE7CFCF
:10077000DBFFDBCFE6FF9DDFE552010EE66EC3DF58
:10078000E552DFCFE6FF95DFE552010EE66EBBDFF7
:10079000E552020EE15C02E2E16AE552E16EE552E9
:1007A000E7CFD9FF1200D9CFE6FFE1CFD9FF020E84
:1007B000E126DE6ADD6AFD0EDBCF14F0FE0EDBCF34
:1007C00015F0DE501424E96EDD501520EA6EEF506E
:1007D00015E0FD0EDBCF14F0FE0EDBCF15F0DE5082
:1007E0001424E96EDD501520EA6EEF50E66EAFDF9F
:1007F000E552DF2A010E01E3DB2ADDD7020EE15CC0
:1008000002E2E16AE552E16EE552E7CFD9FF12005C
:10081000D9CFE6FFE1CFD9FF020EE126FE0EDB388D
:100820000F0B0F0BE76E010EE7CFDBFFFE0EDB5069
:100830000F0BDF6E010EDBCFE6FF3BDFE552E66A12
:1008400062DFE552DFCFE6FF34DFE552E66A5BDFC9
:10085000E552020EE15C02E2E16AE552E16EE55228
:10086000E7CFD9FF1200D9CFE6FFE1CFD9FFFB0ECA
:10087000DBCFE6FFFC0EDBCFE6FFFD0EDBCFE6FFB6
:10088000FE0EDBCFE6FF53D8E552E552E552E552C6
:10089000FA0EDBCFE6FF5BDFE552E552E7CFD9FF8B
:1008A0001200D9CFE6FFE1CFD9FF020EE126DE6AC2
:1008B000DD6AFB0EDBCFE6FFFC0EDBCFE6FFFD0EB5
:1008C000DBCFE6FFFE0EDBCFE6FF31D8E552E55287
:1008D000E552E552F90EDBCF14F0FA0EDBCF15F03E
:1008E000DE501424E96EDD501520EA6EEF5015E05D
:1008F000F90EDBCF14F0FA0EDBCF15F0DE50142426
:10090000E96EDD501520EA6EEF50E66E20DFE5520D
:10091000DF2A010E01E3DB2ADDD7020EE15C02E2F1
:10092000E16AE552E16EE552E7CFD9FF1200D9CF77
:10093000E6FFE1CFD9FFE652020EE66E69DFE5522F
:10094000FD0EDBCF14F0FE0EDBCF15F0020E145CB3
:10095000000E155804E3C00EE66E5ADFE552D9507A
:10096000FB0FE96EFF0EDA20EA6E100ED880EE540F
:10097000000EED5407E2110EF36EFB0EF3CFDBFF1A
:10098000FC0EDB6A010EDF6EDFCF14F0156A14BEB9
:100990001568FB0EDBCF16F0FC0EDBCF17F0165000
:1009A000145C1750155806E2140EE66E31DFE5525E
:1009B000DF2AEAD7E552E552E7CFD9FF1200B50E9C
:1009C000E66ED2EC06F0E552030EE66E72DEE552FC
:1009D000E66A99DEE5523D0EE66ED2EC06F0E5528F
:1009E000030EE66E66DEE552E66A8DDEE552300EF7
:1009F000E66E0EEC07F0E552030EE66E5ADEE552A7
:100A0000E66A81DEE552020EE66E53DEE552E66AE4
:100A10007ADEE552040EE66EFBDEE5520C0EE66E63
:100A2000F7DEE552280EE66EF3DEE552010EE66EC5
:060A3000EFDEE5521200AA
:0A0A3600456E7472657A20756E65D6
:100A400020636F6D6D616E6465206120656E766FE9
:100A50007965722061752044494749434F444520D8
:100A60003A0A0D0A0D202052203A2052657365740F
:100A70002064752044494749434F4445200A0D20CE
:100A80002043203A204368616E67656D656E74206F
:100A9000647520434F4445200A0D20204D203A2004
:100AA0004368616E67656D656E74206475206D6561
:100AB00073736167652064276163637565696C2082
:100AC0006475204C4344200A0D0052657365742000
:100AD0006475204D6963726F2D636F6E7472F46C70
:100AE0006575722065666665637475E92021004549
:100AF000727265757220646520736169736965201F
:100B00002D20496C206E6520732761676974207001
:100B10006173206427756E6520636F6D6D616E640F
:100B200065202100457272657572206465207361CD
:100B300069736965202D20456E7472657A20756E23
:100B400020636F646520E020342063686966667204
:100B5000657320210045727265757220646520738B
:100B60006169736965202D20456E7472657A207500
:100B70006E206D6573736167652064652031362072
:100B8000636172616374E8726573206D6178696D89
:100B9000756D202100536169736965203A2000203A
:100BA00043686F6978203A20000A0D0A0D000A0D8B
:010BB0000044
:0E0BB200FF0EE3CFEAFFE552FF0EE3CFE9FFAF
:100BC000E552E66AE66AD9CFE6FFDACFE6FFFC0E29
:100BD000E124D96EFF0EE220DA6EE66AE66AE66A82
:100BE000200EEF5C06E0090EEF5C03E0EF6603D039
:100BF0003FD0EE50F5D72D0EEF5C03E1FF0EE32A58
:100C000003D02B0EEF5C01E1EE502F0EEF6424D0E9
:100C10003A0EEF6021D0D890F90EE336FA0EE336A3
:100C2000FD0EDECFE3FFFE0EDDCFE3FFD890F90E21
:100C3000E336FA0EE336D890F90EE336FA0EE336D1
:100C4000FD0EE350DE26FE0EE350DD22300EEE5C9C
:100C5000DE26000EDD22D9D7FF0EE3CFE8FFE852F3
:100C600007E0F90EE31EE32AFA0ED8B4E306E31E0A
:100C7000E552E552E552FF0EE3CFDAFFE552FF0EF3
:100C8000E3CFD9FFE552E1CFE9FFE2CFEAFFED5232
:0C0C9000ED52EECFF3FFEFCFF4FF1200A7
:040C9C001E0EF66EC4
:100CA000000EF76E000EF86E00010900F550C36FDC
:100CB0000900F550C46F03E1C36701D03DD00900BE
:100CC000F550BE6F0900F550BF6F0900F550C06FB9
:100CD00009000900F550E96E0900F550EA6E0900B7
:100CE00009000900F550C16F0900F550C26F0900F5
:100CF0000900F6CFC5F0F7CFC6F0F8CFC7F0BEC0F9
:100D0000F6FFBFC0F7FFC0C0F8FF0001C15302E10A
:100D1000C25307E00900F550EE6EC107F8E2C207C2
:100D2000F9D7C5C0F6FFC6C0F7FFC7C0F8FF00017E
:0A0D3000C307000EC45BBFD712001A
:060D3A0008C012F0085091
:100D40000D02F4CF07F0F3CF06F009500E02F4CFF6
:100D500009F0F3CF08F00D02F3500726F4500822F3
:100D6000E86A092212500E02F3500726F4500822B6
:060D7000E86A0922000CF4
:0A0D7600FF0EE350196EEF0E01D0DE
:100D8000F30EE76EE72EC2EF06F00C0E186EE76A60
:100D9000E72EC8EF06F0182EC7EF06F0192EC0EFA9
:040DA00006F0120047
:0C0DA400FF0EE350196E480E01D04C0EFB
:100DB000E76EE72EFED7E76AE72EFED7192EF7D7A4
:040DC000000012001D
:0C0DC400000EF36E00EE00F0040E01D8EB
:100DD0001200EA6002D0EE6AFCD7F350E96012001C
:040DE000EE6AFCD7E4
:0C0DE40012EE00F022EE00F0F86A019C14
:100DF0004EEC06F003EC00F01AEC01F0FBD7120009
:100E0000FE0EE3CFE9FFFF0EE3CFEAFFF36AF46AD9
:0C0E1000EE5203E0F34AF42AFBD7120074
:040E1C00FF0EE35092
:100E2000196E1B0E00D001D0200EE76EE72EFED704
:080E3000192EFAD700D01200C0
:080E3800FF0EE350E84E12002A
:0E0E4000000000D000D000D0E82EFAD712003B
:020E4E005361EE
:100E50006973697220636F6465203A000000202086
:100E600020202020202020202020202020204F7003
:100E7000656E000303030303030303030303D405A5
:040E8000000000016D
:020000040030CA
:0100000001FE
:010001000EF0
:0100020019E4
:010003001EDE
:010005008377
:00000001FF
