:020000040000FA
:06000000EBEF20F01200FE
:020006001200E6
:060008005BEF1DF0120089
:02000E000200EE
:1000100036420000E00100002000000034420000F1
:080020006C000000020000006A
:08002800050EE66E07EC21F065
:10003000E552050EE66E07EC21F0E5528A88050EC2
:10004000E66E07EC21F0E552050EE66E07EC21F0B6
:10005000E5528A981200D9CFE6FFE1CFD9FFE652E8
:100060009568E2DFFE0EDB0401E1DEDF8350DF6E28
:10007000956ADF5000D0E552E552E7CFD9FF120074
:10008000D9CFE6FFE1CFD9FFFE0EDB5003E18A8036
:100090008A920CD0FE0EDB0403E18A908A8206D09D
:1000A000FE0EDB50020802E18A808A82E552E7CF29
:1000B000D9FF1200D9CFE6FFE1CFD9FFFE0EDB500A
:1000C0004009E76EFE0EE7CFDBFFDB508C6EACDF46
:1000D000E552E7CFD9FF1200D9CFE6FFE1CFD9FF34
:1000E000FE0EDB50B809E76EFE0EE7CFDBFFDB50FC
:1000F0008C6E9ADFE552E7CFD9FF1200D9CFE6FF29
:10010000E1CFD9FF020EE126DF6A010EDB6A8A8A9F
:10011000050EE66E07EC21F0E5528A9A050EE66EB2
:1001200007EC21F0E5528A8A8A868A94E66AA8DF7B
:10013000E552E66A90DFE552100B01E0FAD7010EB6
:10014000E66E9EDFE552E66A86DFE552100B01E0BF
:10015000FAD73F0E8C6E8A968A94020EE66E90DF76
:10016000E55262DFDF6A080EDF5C1CE28A94DFCFB3
:10017000E6FFB2DFE5528A84FE0EDB508C6E010E84
:10018000DB6ADB50006E016AD890015004E6400E35
:10019000005C000E015804E247DF010EDB2AF1D7B4
:1001A000DF2AE1D78A94E66A97DFE552E66A82DFC2
:1001B000E552020EE15C02E2E16AE552E16EE552CF
:1001C000E7CFD9FF1200D9CFE6FFE1CFD9FF020E6A
:1001D000E126DF6A010EDB6A8A968A94020EE66ED9
:1001E0004FDFE552E66A66DFE552DF6A080EDF5C44
:1001F00027E2020EE66E44DFE5528A94DFCFE6FF87
:100200006BDFE5528A84010EDB6ADB50006E016A07
:10021000D890015004E6400E005C000E01580EE23A
:10022000010EE66E2DDFE5528C6AFEDEE66A28DFFF
:10023000E5528C6AF9DE010EDB2AE7D7DF2AD6D732
:10024000020EE15C02E2E16AE552E16EE552E7CFBF
:10025000D9FF1200D9CFE6FFE1CFD9FFFE0EDB5068
:1002600005E0FE0EDB0402E0000E07D0FE0EDBCF41
:10027000E6FF06DFE552010E00D0E552E7CFD9FFD9
:100280001200D9CFE6FFE1CFD9FFFE0EDB04E76E07
:10029000FE0EE7CFDBFF080EF36EFE0EDBCFF4FFA2
:1002A000F350F45C02E3000E1DD0FD0EDB5005E0C0
:1002B000FD0EDB0402E0000E15D0FE0EDB50B80987
:1002C000E76EFE0EE7CFDBFFFD0EDBCFE6FFD8DEED
:1002D000E5528A968A94FE0EDBCFE6FFFDDEE552FC
:1002E000010E00D0E552E7CFD9FF1200D9CFE6FFCB
:1002F000E1CFD9FFFE0EDB04E76EFE0EE7CFDBFF9A
:10030000400EF36EFE0EDBCFF4FFF350F45C02E31D
:10031000000E1DD0FD0EDB5005E0FD0EDB0402E0FB
:10032000000E15D0FE0EDB504009E76EFE0EE7CF43
:10033000DBFFFD0EDBCFE6FFA3DEE5528A968A9453
:10034000FE0EDBCFE6FFB6DEE552010E00D0E55231
:10035000E7CFD9FF1200D9CFE6FFE1CFD9FFFD0EDD
:10036000DB5005E0FD0EDB0402E0000E0DD0FD0EBB
:10037000DBCFE6FF85DEE552FE0EDB508C6E8A9603
:100380008A8452DE010E00D0E552E7CFD9FF120079
:10039000D9CFE6FFE1CFD9FF8A868A94FE0EDBCF64
:1003A000E6FF6EDEE552E66A56DEE55200D0E55223
:1003B000E7CFD9FF1200D9CFE6FFE1CFD9FF040E76
:1003C000E126FE0EDB04E76EFE0EE7CFDBFFFD0E3F
:1003D000DB04E76EFD0EE7CFDBFFFE0EDB50006EA9
:1003E000016AD890015004E6800E005C000E0158AE
:1003F00008E2400EF36EFD0EDBCFF4FFF350F45C29
:1004000002E3000E82D0FC0EDB50FF0805E0FC0E7C
:10041000DB5002E0000E79D0FD0EDB50070BE76EDB
:10042000030EE7CFDBFF400EF36EFE0EDBCFF4FFD3
:10043000F350F45C03E2010EDF6E08D0FE0EDB50D9
:10044000C00FE76EFE0EE7CFDBFFDF6ADFCFE6FF10
:1004500017DEE5528A968A94FE0EDBCFE6FF2ADE8F
:10046000E552FD0EDB50F80BE842E842E842E66E4A
:1004700033DEE5528A868A84010EE66EECDDE552B3
:10048000E76E020EE7CFDBFF8A968A94FE0EDBCF83
:10049000E6FF10DEE552FC0EDB501EE1030EDB50E2
:1004A000F76A920FF66E1F0EF7220800F5CF00F0E4
:1004B000020EDBCFE6FF030EDB50F76A920FF66EFB
:1004C0001F0EF7220800F550E552E7100018E76EFE
:1004D000010EE7CFDBFF12D0020EDBCFE6FF030EEB
:1004E000DB50F76A920FF66E1F0EF7220800F550E8
:1004F000E552E710E76E010EE7CFDBFF8A968A84AC
:10050000DB508C6E91DD010E00D0006E040EE15CBC
:1005100002E2E16AE552E16E0050E552E7CFD9FF11
:100520001200D9CFE6FFE1CFD9FF020EE126DF6A44
:10053000010EDB6A8A968A94020EE66EA1DDE55210
:10054000E66AB8DDE552DF6A080EDF5C57E2020EAC
:10055000E66E96DDE5528A94DFCFE6FFBDDDE5521B
:100560008A84010EDB6ADB50006E016AD89001506C
:1005700004E6400E005C000E01583EE2010EE66EFD
:100580007FDDE552010EDB50026E036ADF50800D05
:10059000F3500224006EF4500320016EFD0EDB5078
:1005A0000024F66EFE0EDB500120F76E0800F550B9
:1005B0008C6E3ADDE66A64DDE552010EDB50026EB8
:1005C000036ADF50800DF3500224006EF4500320C4
:1005D000016E400E0026000E0122FD0EDB500024AD
:1005E000F66EFE0EDB500120F76E0800F5508C6EA3
:1005F0001BDD010EDB2AB7D7DF2AA6D7020EE15C8E
:1006000002E2E16AE552E16EE552E7CFD9FF12005E
:10061000D9CFE6FFE1CFD9FF0A0EE126FE0EDB04BB
:10062000E76EFE0EE7CFDBFFFD0EDB04E76EFD0E8F
:10063000E7CFDBFFFC0EDB04E76EFC0EE7CFDBFF52
:10064000FB0EDB04E76EFB0EE7CFDBFFFE0EDBCF1E
:1006500000F0FC0EDB50D880005408E3FD0EDBCF29
:1006600001F0FB0EDB50D880015402E2000E67D28D
:10067000FA0EDB5006E0FA0EDB50FF0802E0000E37
:100680005ED2FE0EDB50006E016AD890015004E687
:10069000800E005C000E01581CE2FC0EDB50026E66
:1006A000036AD890035004E6800E025C000E0358E3
:1006B00010E2400EF36EFD0EDBCFF4FFF350F45C5E
:1006C00008E2400EF36EFB0EDBCFF4FFF350F45C58
:1006D00002E3000E34D2FD0EDB50F80BE842E84294
:1006E000E842E76E030EE7CFDBFFFB0EDB50F80BB3
:1006F000E842E842E842E76E040EE7CFDBFFFD0E7A
:10070000DB50070BE76E050EE7CFDBFFFB0EDB5080
:10071000070BE76E060EE7CFDBFF030EDB50DF6E45
:10072000040EDB50D880DF5401E207D2020EE66EE1
:10073000A7DCE5528A968A94DFCFE6FFCDDCE5524E
:10074000400EF36EFE0EDBCFF4FFF350F45C11E2CB
:10075000010EF36E070EF3CFDBFFDBCFE6FF90DC7D
:10076000E5528A968A94FE0EDBCFE6FFA3DCE552C3
:100770000ED0070EDB6ADBCFE6FF82DCE5528A96FD
:100780008A94FE0EDB50C00FE66E94DCE552FE0E3E
:10079000DB04E76E020EE7CFDBFF030EDB50DF5C0E
:1007A00001E07DD0040EDB50DF5C01E178D0FE0E6D
:1007B000DB50E76E010EE7CFDBFFDBCF00F0FC0E76
:1007C000DB50D88000546AE3400EF36E010EDBCF9D
:1007D000F4FFF350F45C07E2010EDB50E76E020E0B
:1007E000E7CFDBFF1AD0010EDB50400810E1020E0C
:1007F000DB6A070EDB6ADBCFE6FF42DCE5528A9656
:100800008A94020EDBCFE6FF55DCE55206D0020EDD
:10081000DB28E76E020EE7CFDBFF8A868A84010EB3
:10082000E66E19DCE552E76E080EE7CFDBFF8A962D
:100830008A94020EDBCFE6FF3DDCE552FA0EDB5078
:1008400013E1080EDBCFE6FF050EDB50F76A820FDF
:10085000F66E1F0EF7220800F550E552E714E76E1A
:10086000090EE7CFDBFF12D0080EDBCFE6FF050E47
:10087000DB50F76A820FF66E1F0EF7220800F51C98
:10088000E552E710E76E090EE7CFDBFFDB508C6E19
:100890008A8414EC00F0010EDB2A8FD74CD1040EB1
:1008A000DB50DF5C01E081D0030EDB50DF5C01E157
:1008B0007CD0FE0EDB50E76E010EE7CFDBFFDBCF17
:1008C00000F0FC0EDB50D88000546EE3400EF36E57
:1008D000010EDBCFF4FFF350F45C07E2010EDB50B6
:1008E000E76E020EE7CFDBFF1CD0010EDB504008A5
:1008F00012E1020EDB6A070EDB6ADBCFE6FF40EC9B
:1009000000F0E5528A968A94020EDBCFE6FF5AEC9D
:1009100000F0E55206D0020EDB28E76E020EE7CFAC
:10092000DBFF8A868A84010EE66E2BEC00F0E5522E
:10093000E76E080EE7CFDBFF8A968A94020EDBCFC4
:10094000E6FF5AEC00F0E552FA0EDB5013E1080E18
:10095000DBCFE6FF060EDB50F76A8A0FF66E1F0E3E
:10096000F7220800F550E552E714E76E090EE7CFCD
:10097000DBFF12D0080EDBCFE6FF060EDB50F76A76
:100980008A0FF66E1F0EF7220800F51CE552E710DD
:10099000E76E090EE7CFDBFFDB508C6E8A8414EC28
:1009A00000F0010EDB2A8BD7C6D0040EDB50F36EAD
:1009B000030EDB50F35C01E092D0FE0EDB50E76EDD
:1009C000010EE7CFDBFFDBCF00F0FC0EDB50D88061
:1009D000005401E283D0400EF36E010EDBCFF4FF32
:1009E000F350F45C07E2010EDB50E76E020EE7CF36
:1009F000DBFF1BD0010EDB50400811E1070EDB6A64
:100A0000DBCFE6FF40EC00F0E552020EDB6A8A968F
:100A10008A94DBCFE6FF5AEC00F0E55206D0020ED6
:100A2000DB28E76E020EE7CFDBFF8A868A84010EA1
:100A3000E66E2BEC00F0E552E76E080EE7CFDBFF29
:100A40008A968A94020EDBCFE6FF5AEC00F0E5525C
:100A5000FA0EDB501EE1080EDBCFE6FF050EDB5081
:100A6000F76A820FF66E1F0EF7220800F5CF00F02E
:100A7000060EDB50F76A8A0FF66E1F0EF72208008B
:100A8000F5500010E552E714E76E090EE7CFDBFFE3
:100A90001DD0080EDBCFE6FF050EDB50F76A820F94
:100AA000F66E1F0EF7220800F51C006E060EDB50D6
:100AB000F76A8A0FF66E1F0EF7220800F51C001465
:100AC000E552E710E76E090EE7CFDBFFDB508C6ED7
:100AD0008A8414EC00F0010EDB2A75D72CD0FA0EB4
:100AE000DB508C6E8A848A96FE0EDB50E76E010E18
:100AF000E7CFDBFFDBCF00F0FC0EDB50D8800054EB
:100B00001AE3010EDB50400811E1070EDB6ADBCF70
:100B1000E6FF40EC00F0E5528A968A94E66A5AECC9
:100B200000F0E552FA0EDB508C6E8A8414EC00F073
:100B3000010EDB2ADFD7DF2AF3D5010E00D0006ECD
:100B40000A0EE15C02E2E16AE552E16E0050E55214
:100B5000E7CFD9FF1200D9CFE6FFE1CFD9FF0A0EC8
:100B6000E126FE0EDB04E76EFE0EE7CFDBFFFD0E97
:100B7000DB04E76EFD0EE7CFDBFFFC0EDB04E76E68
:100B8000FC0EE7CFDBFFFB0EDB04E76EFB0EE7CFCF
:100B9000DBFFFE0EDBCF00F0FC0EDB50D8800054F4
:100BA00008E3FD0EDBCF01F0FB0EDB50D8800154D3
:100BB00002E2000E65D3FA0EDB5006E0FA0EDB50BF
:100BC000FF0802E0000E5CD3FE0EDB50006E016AEF
:100BD000D890015004E6800E005C000E01581CE223
:100BE000FC0EDB50026E036AD890035004E6800EC0
:100BF000025C000E035810E2400EF36EFD0EDBCFD8
:100C0000F4FFF350F45C08E2400EF36EFB0EDBCF12
:100C1000F4FFF350F45C02E3000E32D3FD0EDB5020
:100C2000F80BE842E842E842E76E030EE7CFDBFF4D
:100C3000FB0EDB50F80BE842E842E842E76E040E98
:100C4000E7CFDBFFFD0EDB50070BE76E050EE7CFAE
:100C5000DBFFFB0EDB50070BE76E060EE7CFDBFF7B
:100C6000030EDB50DF6E040EDB50D880DF5401E250
:100C700005D3020EE66E40EC00F0E5528A968A94A7
:100C8000DFCFE6FF6CEC00F0E552400EF36EFE0E97
:100C9000DBCFF4FFF350F45C13E2010EF36E070EAA
:100CA000F3CFDBFFDBCFE6FF40EC00F0E5528A96A6
:100CB0008A94FE0EDBCFE6FF5AEC00F0E55210D02E
:100CC000070EDB6ADBCFE6FF40EC00F0E5528A96C8
:100CD0008A94FE0EDB50C00FE66E5AEC00F0E5522F
:100CE000FE0EDB04E76E020EE7CFDBFF030EDB50E8
:100CF000DF5C01E0C4D0040EDB50DF5C01E1BFD05B
:100D0000FE0EDB50E76E010EE7CFDBFFDBCF00F01E
:100D1000FC0EDB50D880005401E2B0D0400EF36EE0
:100D2000010EDBCFF4FFF350F45C07E2010EDB5061
:100D3000E76E020EE7CFDBFF1CD0010EDB50400850
:100D400012E1020EDB6A070EDB6ADBCFE6FF40EC46
:100D500000F0E5528A968A94020EDBCFE6FF5AEC49
:100D600000F0E55206D0020EDB28E76E020EE7CF58
:100D7000DBFF8A868A84010EE66E2BEC00F0E552DA
:100D8000E76E080EE7CFDBFF8A968A94020EDBCF70
:100D9000E6FF5AEC00F0E552FE0EDB50F36E010E5A
:100DA000DB50F35C07E0FC0EDB50F36E010EDB5012
:100DB000F35C29E1FA0EDB5013E1080EDBCFE6FF0E
:100DC000050EDB50F76A820FF66E1F0EF722080041
:100DD000F550E552E714E76E090EE7CFDBFF12D0BE
:100DE000080EDBCFE6FF050EDB50F76A820FF66ECA
:100DF0001F0EF7220800F51CE552E710E76E090EFA
:100E0000E7CFDBFF33D0FA0EDB501EE1050EDB50DF
:100E1000F76A920FF66E1F0EF7220800F5CF00F06A
:100E2000080EDBCFE6FF050EDB50F76A920FF66E79
:100E30001F0EF7220800F550E552E7100018E76E84
:100E4000090EE7CFDBFF12D0080EDBCFE6FF050E61
:100E5000DB50F76A920FF66E1F0EF7220800F5506E
:100E6000E552E710E76E090EE7CFDBFFDB508C6E33
:100E70008A8414EC00F0010EDB2A48D7FDD1040E61
:100E8000DB50DF5C01E0C4D0030EDB50DF5C01E12E
:100E9000BFD0FE0EDB50E76E010EE7CFDBFFDBCFEE
:100EA00000F0FC0EDB50D880005401E2B0D0400EC0
:100EB000F36E010EDBCFF4FFF350F45C07E2010E9A
:100EC000DB50E76E020EE7CFDBFF1CD0010EDB50DC
:100ED000400812E1020EDB6A070EDB6ADBCFE6FF99
:100EE00040EC00F0E5528A968A94020EDBCFE6FFD2
:100EF0005AEC00F0E55206D0020EDB28E76E020E37
:100F0000E7CFDBFF8A868A84010EE66E2BEC00F0C9
:100F1000E552E76E080EE7CFDBFF8A968A94020E51
:100F2000DBCFE6FF5AEC00F0E552FE0EDB50F36E2D
:100F3000010EDB50F35C07E0FC0EDB50F36E010E9C
:100F4000DB50F35C29E1FA0EDB5013E1080EDBCF36
:100F5000E6FF060EDB50F76A8A0FF66E1F0EF722C9
:100F60000800F550E552E714E76E090EE7CFDBFF06
:100F700012D0080EDBCFE6FF060EDB50F76A8A0FB1
:100F8000F66E1F0EF7220800F51CE552E710E76E1B
:100F9000090EE7CFDBFF33D0FA0EDB501EE1060E61
:100FA000DB50F76A920FF66E1F0EF7220800F5CF9E
:100FB00000F0080EDBCFE6FF060EDB50F76A920F5B
:100FC000F66E1F0EF7220800F550E552E7100018E4
:100FD000E76E090EE7CFDBFF12D0080EDBCFE6FF8E
:100FE000060EDB50F76A920FF66E1F0EF72208000E
:100FF000F550E552E710E76E090EE7CFDBFFDB5057
:101000008C6E8A8414EC00F0010EDB2A48D734D1B0
:10101000040EDB50F36E030EDB50F35C01E0DFD017
:10102000FE0EDB50E76E010EE7CFDBFFDBCF00F0FB
:10103000FC0EDB50D880005401E2D0D0400EF36E9D
:10104000010EDBCFF4FFF350F45C07E2010EDB503E
:10105000E76E020EE7CFDBFF1BD0010EDB5040082E
:1010600011E1070EDB6ADBCFE6FF40EC00F0E55252
:10107000020EDB6A8A968A94DBCFE6FF5AEC00F018
:10108000E55206D0020EDB28E76E020EE7CFDBFF4B
:101090008A868A84010EE66E2BEC00F0E552E76E3C
:1010A000080EE7CFDBFF8A968A94020EDBCFE6FFBD
:1010B0005AEC00F0E552FE0EDB50F36E010EDB50F1
:1010C000F35C07E0FC0EDB50F36E010EDB50F35CCB
:1010D0003FE1FA0EDB501EE1080EDBCFE6FF050E06
:1010E000DB50F76A820FF66E1F0EF7220800F5CF6D
:1010F00000F0060EDB50F76A8A0FF66E1F0EF7221D
:101100000800F5500010E552E714E76E090EE7CF2E
:10111000DBFF1DD0080EDBCFE6FF050EDB50F76AC4
:10112000820FF66E1F0EF7220800F51C006E060EE9
:10113000DB50F76A8A0FF66E1F0EF7220800F51CC7
:101140000014E552E710E76E090EE7CFDBFF3ED053
:10115000FA0EDB501EE1080EDBCFE6FF060EDB5079
:10116000F76A920FF66E1F0EF7220800F51C006E4C
:10117000050EDB50F76A920FF66E1F0EF72208007D
:10118000F51C0014E552E714E76E090EE7CFDBFF0C
:101190001DD0080EDBCFE6FF060EDB50F76A920F7C
:1011A000F66E1F0EF7220800F5CF00F0050EDB509B
:1011B000F76A920FF66E1F0EF7220800F550001026
:1011C000E552E710E76E090EE7CFDBFFDB508C6ED0
:1011D0008A8414EC00F0010EDB2A28D74DD0FA0ED9
:1011E000DB508C6E8A848A96400EF36EFE0EDBCF47
:1011F000F4FFF350F45C14E3070EDB6ADBCFE6FF89
:1012000040EC00F0E5528A968A94FE0EDB50C00F47
:10121000E66E5AEC00F0E552FA0EDB508C6E8A84D2
:1012200014EC00F0400EF36EFC0EDBCFF4FFF35035
:10123000F45C15E3070EDB6ADBCFE6FF40EC00F061
:10124000E5528A968A94FC0EDB50C00FE66E5AEC8B
:1012500000F0E552FA0EDB508C6E8A8407D08A9437
:10126000FC0EDBCFE6FF5AEC00F0E552FA0EDB5045
:101270008C6E8A8414EC00F0DF2AF5D4010E00D0C5
:10128000006E0A0EE15C02E2E16AE552E16E005096
:10129000E552E7CFD9FF1200D9CFE6FFE1CFD9FF62
:1012A000140EE126010EF36E0A0EF3CFDBFF0D0ED6
:1012B000DB6AFC0EDB04E76EFC0EE7CFDBFFFB0E08
:1012C000DB04E76EFB0EE7CFDBFFFD0EDB5006E035
:1012D000FD0EDB50FF0802E0000EDAD3FC0EDBCF80
:1012E000E6FFF90EDBCFE9FFFA0EDBCFEAFFEF50A6
:1012F000E552E724006E016A013404E200508008E0
:10130000000E01540FE3FB0EDBCFE6FFF90EDBCF3F
:10131000E9FFFA0EDBCFEAFFEE52EF50E552E72489
:10132000400802E2000EB4D3F90EDBCFE9FFFA0E5B
:10133000DBCFEAFFEE52EF04F80BE842E842E84266
:10134000010F080D020EF3CFDBFFDBCFE6FFF90E36
:10135000DBCFE9FFFA0EDBCFEAFFEE52EF50E552AA
:10136000E75CE76E090EE7CFDBFFDB50F36EFB0EA9
:10137000DBCFF4FFF350F45C1EE3FB0EDBCFE6FFA4
:10138000090EDB50E552E75CE76EFB0EE7CFDBFFB3
:10139000020EDBCFE6FFFB0EDB50E552E724FF0F2A
:1013A000F80BE842E842E842E76E050EE7CFDBFFC4
:1013B0000A0EDB6A0AD0020EDB04F80BE842E842B0
:1013C000E842E76E050EE7CFDBFFF90EDBCFE9FF62
:1013D000FA0EDBCFEAFF030EEFCFDBFFFB0EDB5095
:1013E000F80BE842E842E842E76E040EE7CFDBFF85
:1013F000020EDB50F80BE842E842E842E76E060EC8
:10140000E7CFDBFFDB04E76E070EE7CFDBFF060E5F
:10141000DB50026E036A030EDBCFE6FFFE0EDB50ED
:10142000E00FE552E702F350006E016A00C020F0C1
:1014300001C021F002C025F003C026F0EDEC1BF046
:10144000120E1EC0DBFF130E1FC0DBFFFB0EDB50B6
:10145000070BE76E080EE7CFDBFF400EF36EFC0EC6
:10146000DBCFF4FFF350F45C0BE2010EF36E0B0ED6
:10147000F3CFDBFFDBCFE6FF40EC00F0E55207D017
:101480000B0EDB6ADBCFE6FF40EC00F0E552FC0E12
:10149000DB04E76E0C0EE7CFDBFFFC0EDB504008F1
:1014A00008E2FC0EDB50C00FFF0FE76E0C0EE7CF1B
:1014B000DBFFDF6A030EDB50DF5C01E3E7D2070EE0
:1014C000DB50E76E0D0EE7CFDBFF0C0EDB2ADB50A7
:1014D000400809E10C0EDB6A0B0EDB6ADBCFE6FF8E
:1014E00040EC00F0E552040EDB50E76E010EE7CF52
:1014F000DBFFDBCF00F0050EDB50D880005401E2AB
:10150000C3D28A968A94010EDBCFE6FF6CEC00F022
:10151000E5520C0EDBCFE6FF5AEC00F0E5528A866E
:101520008A84010EE66E2BEC00F0E552E76E110E98
:10153000E7CFDBFF8A968A940C0EDBCFE6FF5AECEE
:1015400000F0E5520A0EDB0401E00DD1050EDB5080
:10155000F36E010EDB50F35C5AE1070EDB50DF0245
:10156000F350DF24026E036A120EDB500224006E79
:10157000130EDB500320016EF90EDBCFE9FFFA0EEC
:10158000DBCFEAFF020EE926000EEA220050EE242D
:10159000F66E0150EE20F76E08000E0EF5CFDBFF61
:1015A000090EDBCFE6FFFB0EDB50E552E75C006E79
:1015B0000E0EDB5000C0E7FFE75204E0E8427F0B6D
:1015C000E706FCE1E76E0E0EE7CFDBFFFD0EDB501A
:1015D000FF080CE10E0EDBCFE6FF110EDB50E552EB
:1015E000E710E76E0E0EE7CFDBFF0BD0110EDBCF5F
:1015F000E6FF0E0EDB1CE552E714E76E0E0EE7CF9A
:10160000DBFFDB508C6E8A8414EC00F0ABD0070E4D
:10161000DB50DF02F350DF24046E056A120EDB504C
:101620000424026E130EDB500520036E0D0EDB50FA
:1016300000010224006E000E0320016EF90EDBCFC4
:10164000E9FFFA0EDBCFEAFF020EE926000EEA22DE
:101650000050EE24F66E0150EE20F76E08000E0EDC
:10166000F5CFDBFF070EDB50DF02F350DF24046E03
:10167000056A120EDB500424026E130EDB500520A7
:10168000036E0D0EDB500224006E000E0320016E6F
:101690000006000E015AF90EDBCFE9FFFA0EDBCF90
:1016A000EAFF020EE926000EEA220050EE24F66E52
:1016B0000150EE20F76E0800100EF5CFDBFFFB0E99
:1016C000DBCFE6FF090EDBCFE6FF080EE552D88040
:1016D000E754E552E724006E100EDB50005204E0A0
:1016E000E846FE0B0006FCE1E76E100EE7CFDBFFDD
:1016F000DBCFE6FF090EDBCFE6FFFB0EDB50E5524A
:10170000E75C006E0E0EDB5000C0E7FFE75204E01E
:10171000E8427F0BE706FCE1E552E710E76E0E0EAC
:10172000E7CFDBFFFD0EDB50FF080CE10E0EDBCF39
:10173000E6FF110EDB50E552E710E76E0E0EE7CF25
:10174000DBFF0BD0110EDBCFE6FF0E0EDB1CE552EC
:10175000E714E76E0E0EE7CFDBFFDB508C6E8A845A
:1017600014EC00F08CD1040EDB50F36E010EDB5054
:10177000F35C60E1070EDB50DF02F350DF24046E00
:10178000056A120EDB500424026E130EDB50052096
:10179000036E070EDB5000010224006E000E0320D2
:1017A000016EF90EDBCFE9FFFA0EDBCFEAFF020E86
:1017B000E926000EEA220050EE24F66E0150EE20DB
:1017C000F76E08000E0EF5CFDBFFDB50E76E0F0E55
:1017D000E7CFDBFF0E0EDB50F36E080EDB5004E0AC
:1017E000D890F336E806FCE1F350E76E0E0EE7CF33
:1017F000DBFFFD0EDB50FF080CE10E0EDBCFE6FF3A
:10180000110EDB50E552E710E76E0E0EE7CFDBFF5F
:101810000BD0110EDBCFE6FF0E0EDB1CE552E714FA
:10182000E76E0E0EE7CFDBFFDB508C6E8A8414EC84
:1018300000F025D1050EDB50F36E010EDB50F35C9A
:101840005CE1070EDB50DF02F350DF24026E036A17
:10185000120EDB500224006E130EDB500320016ECB
:10186000F90EDBCFE9FFFA0EDBCFEAFF020EE92625
:10187000000EEA220050EE24F66E0150EE20F76EC4
:1018800008000E0EF5CFDBFF080EDB5015E0080E4A
:10189000DBCFE6FFE552D880E754006E0E0EDB503A
:1018A00000C0E7FFE75204E0E8427F0BE706FCE1F7
:1018B000E76E0E0EE7CFDBFFFD0EDB50FF080CE1FD
:1018C0000E0EDBCFE6FF110EDB50E552E710E76EA0
:1018D0000E0EE7CFDBFF0BD0110EDBCFE6FF0E0EB7
:1018E000DB1CE552E714E76E0E0EE7CFDBFFDB50A3
:1018F0008C6E8A8414EC00F0C2D0080EDB5000E13C
:10190000070EDB50DF02F350DF24046E056A120E6F
:10191000DB500424026E130EDB500520036E0D0E07
:10192000DB5000010224006E000E0320016EF90E50
:10193000DBCFE9FFFA0EDBCFEAFF020EE926000E4D
:10194000EA220050EE24F66E0150EE20F76E0800F9
:101950000E0EF5CFDBFF080EDB5046E0080EDBCFA6
:10196000E6FFE552D880E754006E0F0EDB5000C052
:10197000E7FFE75204E0E8427F0BE706FCE1E76E91
:101980000F0EE7CFDBFFDBCFE6FF0E0EDB50F36E73
:10199000080EDB5004E0D890F336E806FCE1F35083
:1019A000E552E710E76E0E0EE7CFDBFFFD0EDB50D2
:1019B000FF080CE10E0EDBCFE6FF110EDB50E55207
:1019C000E710E76E0E0EE7CFDBFF0BD0110EDBCF7B
:1019D000E6FF0E0EDB1CE552E714E76E0E0EE7CFB6
:1019E000DBFFDB508C6E1DD0FD0EDB50FF080CE1E1
:1019F0000E0EDBCFE6FF110EDB50E552E710E76E6F
:101A00000E0EE7CFDBFF0BD0110EDBCFE6FF0E0E85
:101A1000DB1CE552E714E76E0E0EE7CFDBFFDB5071
:101A20008C6E070EDB50DF02F350DF24046E056A74
:101A3000120EDB500424026E130EDB500520036EE1
:101A40000D0EDB5000010224006E000E0320016E1B
:101A5000F90EDBCFE9FFFA0EDBCFEAFF020EE92633
:101A6000000EEA220050EE24F66E0150EE20F76ED2
:101A700008000F0EF5CFDBFF8A8414EC00F00D0E8A
:101A8000DB06010EDB2A35D5DF2A14D5010E00D086
:101A9000006E140EE15C02E2E16AE552E16E005074
:101AA000E552E7CFD9FF1200D9CFE6FFE1CFD9FF4A
:101AB000030EE126DF6AFB0EDBCFE9FFFC0EDBCF76
:101AC000EAFF010EEFCFDBFFFD0EDBCFE6FFFE0EE0
:101AD000DBCFE6FFF9EC20F0E552E552020EF3CF42
:101AE000DBFFF80EDB5006E0F80EDB50FF0802E0EB
:101AF000000E37D0DF6A020EDB50DF5C30E2FB0EF7
:101B0000DBCFE6FFFC0EDBCFE6FFF90EDBCFE6FF17
:101B1000FA0EDBCFE6FF010EDB28DF02F350E552C1
:101B2000E724E66EF80EDBCFE6FFDF50E76EFD0E32
:101B3000DBCFE9FFFE0EDBCFEAFFE750E926000E20
:101B4000EA22EF50E66E4CEC09F0006E060EE15E04
:101B50000050000902E1000E04D0DF2ACCD7010EAC
:101B600000D0006E030EE15C02E2E16AE552E16E34
:101B70000050E552E7CFD9FF1200D9CFE6FFE1CF01
:101B8000D9FF050EE126FB0EDBCFE9FFFC0EDBCF14
:101B9000EAFFEE52EF500A0FDF6EF90EDB50060F30
:101BA000E76E010EE7CFDBFFFA0EDB50080FE76EA2
:101BB000020EE7CFDBFF030EDB6A040EDB6AFD0ECD
:101BC000DBCFE6FFFE0EDBCFE6FFF9EC20F0E552BF
:101BD000E552040EF3CFDBFFDBCFE6FFFB0EDBCFDE
:101BE000E9FFFC0EDBCFEAFFEF28E552E702F350F6
:101BF0000E0FE76E030EE7CFDBFFF80EDB503F085A
:101C000006E0F80EDB503E0802E0000E6FD0F70E43
:101C1000DB50FF0805E0F70EDB5002E0000E66D057
:101C2000F70EDBCFE6FFF90EDB50DF24E66E030E86
:101C3000DBCFE6FFFA0EDB50E552E724E66EF90E45
:101C4000DBCFE6FFFA0EDBCFE6FFABEC05F0006E74
:101C5000050EE15E0050000902E1000E47D0F70ECC
:101C6000DBCFE6FF010EDBCFE6FF020EDBCFE6FFA8
:101C7000FB0EDBCFE6FFFC0EDBCFE6FFFD0EDBCF7E
:101C8000E6FFFE0EDBCFE6FF0FDF006E070EE15E24
:101C90000050000902E1000E29D0F80EDB503F0889
:101CA00023E1F70EDBCFE6FFF90EDB50DF24FE0F5A
:101CB000E66E030EDBCFE6FFFA0EDB50E552E724BB
:101CC000FE0FE66EF90EDB50020FE66EFA0EDB50E9
:101CD000020FE66EABEC05F0006E050EE15E005003
:101CE000000902E1000E02D0010E00D0006E050EC8
:101CF000E15C02E2E16AE552E16E0050E552E7CFB5
:101D0000D9FF1200D9CFE6FFE1CFD9FF050EE126BA
:101D1000DE52010EDD6E040EF36E020EF3CFDBFF1A
:101D2000DF6A200EDF5C01E322D1DF50E76EFD0E9B
:101D3000DBCFE9FFFE0EDBCFEAFFE750E926000E1E
:101D4000EA22EF50E840E8403F0BE66EDF50E76ED6
:101D5000FD0EDBCFE9FFFE0EDBCFEAFFE750E92601
:101D6000000EEA22E552E750EF6EDF50E76EFD0EFF
:101D7000DBCFE9FFFE0EDBCFEAFFE750E926000EDE
:101D8000EA22EF5040080EE2DF50E76EFD0EDBCF97
:101D9000E9FFFE0EDBCFEAFFE750E926000EEA225C
:101DA000400EEF6EDF50E76EFD0EDBCFE9FFFE0E5B
:101DB000DBCFEAFFE750E926000EEA22EFCF00F082
:101DC000DF50EA6AE00FE96E010EEA22EF50D88098
:101DD000005435E2400E006EDF50E76EFD0EDBCFA3
:101DE000E9FFFE0EDBCFEAFFE750E926000EEA220C
:101DF000EF50005CE76E030EE7CFDBFF400E006E96
:101E0000DF50EA6AE00FE96E010EEA22EF50005C53
:101E1000E76E040EE7CFDBFFE668DBCFE6FF020EDE
:101E2000DBCFE6FF030EDBCFE6FF010EDBCFE6FFE5
:101E300008EC03F0006E050EE15E00504BD0DF5061
:101E4000E76EFD0EDBCFE9FFFE0EDBCFEAFFE750CA
:101E5000E926000EEA22EFCF00F0DF50EA6AE00F39
:101E6000E96E010EEA22EF50005C34E2400E006E93
:101E7000DF50EA6AE00FE96E010EEA22EF50005CE3
:101E8000E76E030EE7CFDBFF400E006EDF50E76E1C
:101E9000FD0EDBCFE9FFFE0EDBCFEAFFE750E926C0
:101EA000000EEA22EF50005CE76E040EE7CFDBFF86
:101EB000E66ADBCFE6FF020EDBCFE6FF030EDBCFE9
:101EC000E6FF010EDBCFE6FF08EC03F0006E050E27
:101ED000E15E0050DF50E76EFD0EDBCFE9FFFE0E46
:101EE000DBCFEAFFE750E926000EEA22EF50E66E6C
:101EF000DF50EA6AE00FE96E010EEA22E552E75090
:101F0000EF6E040E006E010EDBCFE7FF0050E726F8
:101F1000010EE7CFDBFF040E006E020EDBCFE7FF02
:101F20000050E726020EE7CFDBFF010EDB50006E0C
:101F3000016AD890015004E6800E005C000E015842
:101F400003E3DE52800EDD6E020EDB50006E016A8E
:101F5000D890015004E6800E005C000E015805E3A5
:101F6000800EF36E020EF3CFDBFFDF2ADAD6050E0A
:101F7000E15C02E2E16AE552E16EE552E7CFD9FFAA
:021F800012004D
:0E1F8200000103070F1F3F7FFEFCF8F0E0C0D8
:101F900080000102040810204080000000000000C2
:101FA000004F00000007000700147F147F14242A4C
:101FB0007F2A122313086462364955222000050344
:101FC0000000001C2241000041221C0014083E08B1
:101FD0001408083E080850300000000808080808E7
:101FE000006060000020100804023E5149453E0098
:101FF000427F400042615149462141454B3118140E
:10200000127F1027454545393C4A4949300171093D
:1020100005033649494936064949291E0036360026
:102020000000563600000814224100141414141441
:10203000004122140802015109063E415D551E7EF1
:102040001111117E7F494949363E414141227F416C
:1020500041221C7F494949417F090909013E414903
:10206000497A7F0808087F00417F41002040413FB6
:10207000017F081422417F404040407F020C027FD4
:102080007F0408107F3E4141413E7F090909063E19
:102090004151215E7F0919294626494949320101EA
:1020A0007F01013F4040403F1F2040201F3F4038FC
:1020B000403F6314081463070870080761514945DD
:1020C00043007F41410002040810200041417F008D
:1020D000040201020440404040400000030500208B
:1020E000545454787F444444383844444444384435
:1020F00044447F385454541804047E05050854544D
:10210000543C7F0804047800447D40002040443D56
:10211000007F1028440000417F40007C047C04784C
:102120007C0804047838444444387C1414140808A7
:102130001414147C7C0804040048545454240404EB
:102140003F44443C4040207C1C2040201C3C40300C
:10215000403C44281028440C5050503C4464544C9B
:102160004408364141000000770000004141360834
:1021700008082A1C08081C2A0808FFFFFFFFFF00A8
:1021800000000000000000065F5F06000000070777
:1021900000070700147F7F147F7F14242E6B6B3A97
:1021A0001200466630180C6662307A4F5D377A4806
:1021B00004070300000000001C3E634100000041D2
:1021C000633E1C0000082A3E1C1C3E2A08083E3EB6
:1021D0000808000080E060000000080808080808FF
:1021E00000000060600000006030180C0603013E33
:1021F0007F71594D7F3E40427F7F4040006273595E
:10220000496F6600226349497F3600181C16537FC8
:102210007F50276745457D39003C7E4B497930002A
:10222000030371790F0700367F49497F3600064F57
:1022300049693F1E00000066660000000080E666F7
:10224000000000081C3663410000242424242424B8
:1022500000004163361C0800020351590F06003E7E
:102260007F415D5D1F1E7C7E13137E7C00417F7F5E
:1022700049497F361C3E6341416322417F7F416370
:102280003E1C417F7F495D4163417F7F491D0103C2
:102290001C3E63415173727F7F08087F7F000041BD
:1022A0007F7F410000307040417F3F01417F7F08C8
:1022B0001C7763417F7F414060707F7F0E1C0E7FE3
:1022C0007F7F7F060C187F7F1C3E6341633E1C416D
:1022D0007F7F49090F061E3F21717F5E00417F7F8E
:1022E00009197F66266F4D5973320003417F7F4184
:1022F00003007F7F40407F7F001F3F60603F1F00E3
:102300007F7F3018307F7F43673C183C6743074F1F
:1023100078784F0700476371594D6773007F7F419D
:102320004100000103060C1830600041417F7F002E
:1023300000080C0603060C088080808080808000E6
:10234000000307040000207454543C7840417F3F50
:1023500048487830387C44446C2800307848493FFD
:102360007F40387C54545C1800487E7F490302004B
:1023700038BCA4A4FC7800417F7F08047C7800442A
:102380007D7D40000060E08080FD7D00417F7F100A
:10239000386C4400417F7F400000787C1C381C7CF6
:1023A000787C7C04047C7800387C44447C380000D1
:1023B000FCFCA4243C18183C24A4F8FC84447C783D
:1023C0004C041C18485C545474240000043E7F44A0
:1023D00024003C7C40403C7C401C3C60603C1C0039
:1023E0003C7C7038707C3C446C3810386C443CBC8D
:1023F000A0A0FC7C004C64745C4C640008083E7730
:10240000414100000000777700004141773E080815
:102410000002030103020301FF8181818181FF0E1C
:102420009F91B1FB4A000000000000000000000086
:10243000000000000000000000000000000000009C
:10244000000000000000000000000000000000008C
:10245000000000000000000000000000000000007C
:10246000000000000000000000000000000000006C
:10247000000000000000000000000000000000005C
:10248000000000000000000000000000000000004C
:10249000000000000000000000000000000000003C
:1024A000000000000000000000000000000000002C
:1024B000000000000000000000000000000000001C
:1024C000000000000000000000000000000000000C
:1024D00000000000000000000000000000000000FC
:1024E00000000000000000000000000000000000EC
:1024F00000000000000000000000000000000000DC
:1025000000000000000000000000E000E000E0002B
:1025100000000000000000000000000000000000BB
:102520000000000000001F807FE0E070C030C0307D
:10253000E0707FE01F80C060C060C060FFF0FFF00F
:10254000C000C000C000C0C0E0E0F070D830CC30A7
:10255000C670C3E0C1C06000E060C070C630C63065
:10256000CF307FE039C01C001E001B80D9C0D8705E
:10257000FFF0FFF0D8006000E7F0C7F0C330C330D1
:10258000E7307E303C001F007FC0E6E0C360C33010
:10259000E7307E303C30007000700030E030FC30BE
:1025A0003FB007F000F039C07FE0C630C630C6301B
:1025B000C6307FE039C0C3C0C7E0CE70CC306C30CD
:1025C00076703FE00F800000000000000000000077
:1025D00000000000000000000000000000000000FB
:1025E00000000000000000000000000000000000EB
:1025F00000000000000000000000000000000000DB
:1026000000000000000000000000000000000000CA
:1026100000000000000000000000000000000000BA
:1026200000000000000000000000000000000000AA
:10263000000000000000000000000000000000009A
:10264000000000000000000000000000000000008A
:10265000000000000000000000000000000000007A
:10266000000000000000000000000000000000006A
:10267000000000000000000000000000000000005A
:10268000000000000000000000000000000000004A
:10269000000000000000000000000000000000003A
:1026A000000000000000000000000000000000002A
:1026B000000000000000000000000000000000001A
:1026C000000000000000000000000000000000000A
:1026D00000000000000000000000000000000000FA
:1026E00000000000000000000000000000000000EA
:1026F00000000000000000000000000000000000DA
:1027000000000000000000000000000000000000C9
:1027100000000000000000000000E000E000E00019
:1027200000000000000000000000000000000000A9
:102730000000000000000000000000000000000099
:102740000000000000000FFFF00FFFF00FFFF00F80
:10275000FFF0F0000EF0000EF0000EF0000FC06071
:10276000C060C060FFF0FFF0C000C000C00000000B
:10277000000000000000C0C0E0E0F070D830CC30B5
:10278000C670C3E0C1C0000000000000000060008F
:10279000E060C070C630C630CF307FE039C0000086
:1027A0000000000000001C001E001B80D9C0D87073
:1027B000FFF0FFF0D8000000000000000000600003
:1027C000E7F0C7F0C330C330E7307E303C00000094
:1027D0000000000000001F007FC0E6E0C360C330BF
:1027E000E7307E303C300000000000000000007048
:1027F00000700030E030FC303FB007F000F0000027
:1028000000000000000039C07FE0C630C630C6308E
:10281000C6307FE039C00000000000000000C3C0E7
:10282000C7E0CE70CC306C3076703FE00F80000097
:06283000000000000000A2
:0A283600D9CFE6FFE1CFD9FF440E31
:10284000E126DF6A200EDF5C01E3B6D0100EDF5C0C
:1028500019E2DF50F76A240FF66E420EF7220800E5
:10286000F550E66ED950040F006EDACF01F0DF505C
:102870000F010024E96E000E0120EA6EE552E750D8
:10288000EF6E1ED0100EDF5C1BE3100EDF5CF76AEC
:10289000240FF66E420EF7220800F550FF0DF3509C
:1028A000E66ED950040F006EDACF01F0DF500F0151
:1028B0000024E96E000E0120EA6EE552E750EF6E4B
:1028C000080EDF5C1AE2080EDF24F76A240FF66EAA
:1028D000420EF7220800F550E66ED950240F006E24
:1028E000DACF01F0DF500F010024E96E000E012065
:1028F000EA6EE552E750EF6E3ED0080EDF5C1FE354
:10290000180EDF5C1CE2080EDF5CF76A240FF66E1F
:10291000420EF7220800F550FF0DF350E66ED95035
:10292000240F006EDACF01F0DF500F010024E96EB2
:10293000000E0120EA6EE552E750EF6E1CD0180E33
:10294000DF5C19E3180EDF5CF76A240FF66E420EA7
:10295000F7220800F550E66ED950240F006EDACF4A
:1029600001F0DF500F010024E96E000E0120EA6E35
:10297000E552E750EF6E100EDF5C1CE2DF50040DF5
:10298000F3CFE9FFF4CFEAFF400EE926010EEA2279
:10299000EE6AEE6AEE6AEE6ADF50040DF3CFE9FFED
:1029A000F4CFEAFF800EE926010EEA22EE6AEE6A13
:1029B000EE6AEE6ADF2A46D7010EDB6A100EF36E6E
:1029C000010EDBCFF4FFF350F45C01E366D2020E9C
:1029D000DB6A200EF36E020EDBCFF4FFF350F45CE3
:1029E00001E3C6D0010EDBCFE6FF020EDB50E5525D
:1029F000E702F3501F0BE76E030EE7CFDBFF020E7B
:102A0000DB50E76EFD0EDBCFE9FFFE0EDBCFEAFF0A
:102A1000E750E926000EEA22EFCF0AF00B6A0C6AB3
:102A20000D6A0AAE03D00B680C680D68D950040F0C
:102A3000086EDACF09F0030EDB500F010824E96EAF
:102A4000000E0920EA6EEFCF04F0056A066A076AF5
:102A500004AE03D005680668076804C01EF005C010
:102A60001FF006C020F007C021F00AC023F00BC001
:102A700024F00CC025F00DC026F052EC20F01AC056
:102A800000F01BC001F01CC002F01DC003F0010EDD
:102A9000DB50040DF3CFE9FFF4CFEAFF400EE92647
:102AA000010EEA220050EE260150EE220250EE22E4
:102AB0000350EE22020EDB50E76EFD0EDBCFE9FF86
:102AC000FE0EDBCFEAFFE750E926000EEA22EFCF49
:102AD0000AF00B6A0C6A0D6A0AAE03D00B680C6828
:102AE0000D68D950240F086EDACF09F0030EDB50C1
:102AF0000F010824E96E000E0920EA6EEFCF04F002
:102B0000056A066A076A04AE03D0056806680768A6
:102B100004C01EF005C01FF006C020F007C021F061
:102B20000AC023F00BC024F00CC025F00DC026F025
:102B300052EC20F01AC000F01BC001F01CC002F0E3
:102B40001DC003F0010EDB50040DF3CFE9FFF4CFFD
:102B5000EAFF800EE926010EEA220050EE2601501F
:102B6000EE220250EE220350EE22020EDB2A31D773
:102B7000010EDB50040DF3CFE9FFF4CFEAFF400E66
:102B8000E926010EEA22100E236E246A256A266ABF
:102B9000EECF1EF0EECF1FF0EECF20F0EFCF21F002
:102BA000B9EC1BF021C0EDFF20C0EDFF1FC0EDFF11
:102BB0001EC0EFFF010EDB50040DF3CFE9FFF4CF91
:102BC000EAFF800EE926010EEA22100E236E246A27
:102BD000256A266AEECF1EF0EECF1FF0EECF20F072
:102BE000EFCF21F0B9EC1BF021C0EDFF20C0EDFFCD
:102BF0001FC0EDFF1EC0EFFF010EDB50040DF3CF31
:102C0000E9FFF4CFEAFF400EE926010EEA22EECFFB
:102C10000CF0EECF0DF0EECF0EF0EFCF0FF0010E77
:102C2000DB50040DF3CFE9FFF4CFEAFF400EE926B5
:102C3000010EEA22EECF08F0EECF09F0EECF0AF057
:102C4000EFCF0BF008C01EF009C01FF00AC020F043
:102C50000BC021F00CC023F00DC024F00EC025F0F5
:102C60000FC026F052EC20F01AC004F01BC005F093
:102C70001CC006F01DC007F0010EDB50040DF3CFA1
:102C8000E9FFF4CFEAFF800EE926010EEA22EECF3B
:102C900014F0EECF15F0EECF16F0EFCF17F0010ED7
:102CA000DB50040DF3CFE9FFF4CFEAFF800EE926F5
:102CB000010EEA22EECF10F0EECF11F0EECF12F0BF
:102CC000EFCF13F010C01EF011C01FF012C020F0A3
:102CD00013C021F014C023F015C024F016C025F055
:102CE00017C026F052EC20F004501A24006E055054
:102CF0001B20016E06501C20026E07501D20036E23
:102D0000010EDB50040DF3CFE9FFF4CFEAFF000E14
:102D1000E926010EEA2200C0EEFF01C0EEFF02C06C
:102D2000EEFF03C0EEFF010EDB50040DF3CFE9FF11
:102D3000F4CFEAFF000EE926010EEA22EECF0CF0F6
:102D4000EECF0DF0EECF0EF0EFCF0FF00CC01EF077
:102D50000DC01FF00EC020F00FC021F09EEC1BF044
:102D60001FC008F020C009F021C00AF022C00BF0FB
:102D700008C0E6FF09C0E6FF0AC0E6FF0BC0E6FF99
:102D80007DEC17F0E552E552E552E5521EC004F025
:102D90001FC005F020C006F021C007F004C01FF0DE
:102DA00005C020F006C021F007C022F01AEC1CF08C
:102DB0001EC000F01FC001F020C002F021C003F0CF
:102DC000010EDB50040DF3CFE9FFF4CFEAFF000E54
:102DD000E926010EEA2200C0EEFF01C0EEFF02C0AC
:102DE000EEFF03C0EEFF010EDB50040DF3CFE9FF51
:102DF000F4CFEAFF000EE926010EEA22060EE76E86
:102E0000D890030EEB32020EEB32010EEB32EF32B2
:102E1000E706F6E1DB50040DF3CFE9FFF4CFEAFF5C
:102E2000000EE926010EEA22D880FF0EEE54000EB5
:102E3000EE54000EEE54000EEE540FE2010EDB5085
:102E4000040DF3CFE9FFF4CFEAFF000EE926010EEF
:102E5000EA22EE68EE6AEE6AEE6A010EDB50040DBD
:102E6000F3CFE9FFF4CFEAFF000EE926010EEA22D4
:102E7000EF50E66E010EDB50E76EFB0EDBCFE9FF95
:102E8000FC0EDBCFEAFFE750E926000EEA22E5520E
:102E9000E750EF6E010EDB2A91D5100EDF6E200E8B
:102EA000DF5C21E21F0ED880DF54E76EFB0EDBCF24
:102EB000E9FFFC0EDBCFEAFFE750E926000EEA222D
:102EC000EF50E66EDF50E76EFB0EDBCFE9FFFC0E46
:102ED000DBCFEAFFE750E926000EEA22E552E75091
:102EE000EF6EDF2ADCD7440EE15C02E2E16AE552D4
:0A2EF000E16EE552E7CFD9FF1200B2
:062EFA00D9CFE6FFDACF9C
:102F0000E6FFE1CFD9FFE2CFDAFF240EE12402E3AE
:102F1000E168E652E16ED950FA0FE96EFF0EDA2051
:102F2000EA6E020EEECFDBFF030EEECFDBFF040EE8
:102F3000EECFDBFF050EEECFDBFFE8D9F2D9E8ECF0
:102F40001EF0006E060EE15C02E2E16AE552E16EFF
:102F50000050E76E0D0EE7CFDBFFDB50800815E079
:102F6000A0D9246A256A266A276A00C01FF001C01A
:102F700020F002C021F003C022F0FDEC1CF0010A99
:102F800010E1210E00016A6F6B6B020EDB68030E0D
:102F9000DB68040EDB687F0EF36E050EF3CFDBFFFC
:102FA00066D10D0EDB50050B01E061D10A0EDBCFBF
:102FB00000F00B0EDBCF01F0830E0026FF0E012286
:102FC00000C0DEFF01C0DDFFD950060F65D976D9FC
:102FD000DF50010B0FE0DF06010E01E2DB06D950E6
:102FE000180F5AD9D890EF36010EEB36020EEB3699
:102FF000030EEB36D9CFE9FFDACFEAFF020E256EDA
:10300000266AEECF20F0EDCF21F0D7EC1CF020C0E7
:10301000EEFF21C0EDFF140EDB6A150EDB6A160E03
:10302000DB6A170EDB6A1C0EDB6A1D0EDB6A1E0EE6
:10303000DB6A010EF36E1F0EF3CFDBFF010EF36EA2
:103040000E0EF3CFDBFF0F0EDB6A0E0EDBCF00F0B0
:103050000F0EDBCF01F0D890015004E61A0E005C91
:10306000000E015801E398D0180EDBCF00F0190EC6
:10307000DBCF01F01A0EDBCF02F01B0EDBCF03F02B
:10308000010E1F0B07E0D8900036013602360336DA
:10309000E806F9E1180E00C0DBFF190E01C0DBFFE6
:1030A0001A0E02C0DBFF1B0E03C0DBFF140EDBCFCA
:1030B00008F0150EDBCF09F0160EDBCF0AF0170E65
:1030C000DBCF0BF0010E1F0B07E0D8900836093656
:1030D0000A360B36E806F9E1D9501C0FDDD8085046
:1030E000EE24046E0950EE20056E0A50EE20066EA6
:1030F0000B50EE20076ED950180FCED80450EE5C5E
:10310000006E0550EE58016E0650EE58026E0750E4
:10311000EE58036E200E00C0DBFF210E01C0DBFF66
:10312000220E02C0DBFF230E03C0DBFF200EDBCF2D
:103130001FF0210EDBCF20F0220EDBCF21F0230E7B
:10314000DBCF22F02234000E221809E6D880000ED0
:103150001F54000E2054000E2154000E225411E280
:10316000D950200F99D8AAD8D8D81C0EDB50EE120F
:103170001D0EDB50EE121E0EDB50EE121F0EDB504A
:10318000EE12D9501C0F88D8AFD80E0EDB2A0F0EC6
:1031900001E25BD7DB2A59D7C9D8100E00C0DBFF8C
:1031A000110E01C0DBFF180EDBCF20F0190EDBCFB4
:1031B00021F0120E20C0DBFF130E21C0DBFFADD8C3
:1031C00093D8D950100F68D8EE50ED1012E0D950B6
:1031D000120F62D8EE50ED1006E1A8D80050011091
:1031E0000210031006E099D8EE2A000EEE22EE221D
:1031F000EE220C0EDB6A91D8060EEECFDBFF070E37
:10320000EECFDBFF080EEECFDBFF090EEECFDBFFCC
:103210007E0EF36E0A0EF3CFDBFF0B0EDB6AD95086
:10322000020FE66E000EDA20E66E70D876EC1FF024
:10323000E552E552E552E552DECFE6FFDDCFE6FF8F
:1032400070D84CEC1EF0006E060EE15C02E2E16A02
:10325000E552E16E0050020E1EC0DBFF030E1FC0E0
:10326000DBFF040E20C0DBFF050E21C0DBFF19D8F9
:1032700000C01EF001C01FF002C020F003C021F00A
:10328000240EE15C02E2E16AE552E16EE552E5CF2F
:10329000DAFFE7CFD9FF1200E96E000EDA20EA6EFE
:1032A0001200020EDBCF00F0030EDBCF01F0040EA4
:1032B000DBCF02F0050EDBCF03F01200180EEECFCD
:1032C000DBFF190EEECFDBFF1A0EEECFDBFF1B0E7E
:1032D000EECFDBFF1200EECFE6FFEECFE6FFEECF44
:1032E000E6FFEFCFE6FF1200D890030EEB32020E9E
:1032F000EB32010EEB32EF321200EE500016EE50C0
:103300000116EE500216EE5003161200D950060FA9
:10331000E66E000EDA20E66E1200D950140F4CEF64
:1033200019F0D950020FB8DF6BEF19F0010E006EE3
:0C333000016A026A036AF1DF7DEF19F008
:04333C00000000008D
:10334000000000000000000000000000000000007D
:10335000000000000000000000000000000000006D
:10336000000000000000000000000000000000005D
:10337000000000000000000000000000000000004D
:10338000000000000000000000000000000000003D
:10339000000000000000000000000000000000002D
:1033A000000000000000000000000000000000001D
:1033B000000000000000000000000000000000000D
:1033C000000000000002FEFEFEFEFE42E2FA060ED3
:1033D0001E000202FE1E3E7EFEFCF0E2C206FE065B
:1033E000020038FCFEFEF2E2E2C6C49E000002FECD
:1033F000FEFEFEFE02000000F0F8FCFEFE020202ED
:10340000040C3E00000000C038063EFEFEFEF8E060
:103410000000000002FEFEFEFEFE42E2FA060E1E64
:10342000000202FE1E3E7EFEFCF0E2C206FE060226
:10343000000000000000000000000000000000008C
:103440000000000000101F1F1F1F1F101013181C6A
:103450001E0010181F1810000103071F1F1F1F0058
:1034600000001C08101111131F0F0F070000101F80
:103470001F1F1F1F1000000003070F1F1F10101039
:103480001008040010181E1312020212171F1F1F2B
:103490001F1C1000101F1F1F1F1F101013181C1EB1
:1034A0000010181F1810000103071F1F1F1F000026
:1034B000000000000000000000000000000000000C
:1034C00000000000000000000000000000000000FC
:1034D00000000000000000000000000000000000EC
:1034E00000000000000000000000000000000000DC
:1034F00000000000000000000000000000000000CC
:1035000000000000000000000000000000000000BB
:1035100000000000000000000000000000000000AB
:10352000000000000000000000000000000000009B
:10353000000000000000000000000000000000008B
:10354000000000000000000000000000000000007B
:10355000000000000000000000000000000000006B
:10356000000000000000000000000000000000005B
:10357000000000000000000000000000000000004B
:10358000000000000000000000000000000000003B
:10359000000000000000000000000000000000002B
:1035A000000000000000000000000000000000001B
:1035B000000000000000000000000000000000000B
:1035C000804040209090909090101010101010109B
:1035D00010101010109090101010101010101010EB
:1035E00010101010101010909010101010109090DB
:1035F00010101010101010101010101090901010CB
:1036000010101090909090101010101010101010BA
:10361000101010101010109010101010101010102A
:10362000101010101010101010101010101010109A
:103630001010102040408000000000000000001E1C
:10364000618080007F7F444444007E7E02027E7E53
:1036500002027E7C007F7F42427E3C003C7E4A4AE2
:103660006E2C003C7E42427F7F003C7E42427F7F48
:10367000003C7E4A4A6E2C003C7E42427F7F000026
:10368000000027674C4C7939021EFCE07C1E022C9E
:103690006E5A5A7634023F7F42003C7E4A4A6E2C74
:1036A000007E7E02027E7E02027E7C002C6E5A5AD2
:1036B000763400008080611E0000000000000000E1
:1036C00000000001020202020202020202020202E1
:1036D00002020202020202020202020202020202CA
:1036E00002020202020202020202020202020202BA
:1036F00002020202020202020202020202020202AA
:103700000202020202020202030303020202020296
:103710000202020202020202020202020202020289
:103720000202020202020202020202020202020279
:0C37300002020201000000000000000086
:04373C00199E0CD0F6
:10374000199E21AE09D01E6C1F1E201E211EE86A84
:103750001F2220222122198E21C01BF020C01AF026
:103760001FC02BF01EC02AF09E0E1C6E1D6A6DEF4E
:103770001CF0186AE86A26AEC6EF1BF0236C241E04
:10378000251E261E242225222622181E21AED1EF18
:103790001BF01E6C1F1E201E211E1F222022212214
:1037A000181E8AEC20F021BEE8EF1BF018AE000CCA
:1037B0001E6C1F1E201E211EE86A1F2220222122AD
:1037C0001A6C1B1E1C1E1D1E1B221C221D22000CFF
:1037D00018BED8EF1BF01988FF0C21C02BF020C0B9
:1037E0002AF020502502F4CF1FF0F3CF1EF0215015
:1037F0002602F4CF21F0F3CF20F02502F3501F264C
:10380000F4502022E86A21222A502602F3501F2673
:10381000F4502022E86A212226AE13EF1CF02A5031
:10382000205E2B50215A2BAE000C2550205E2650D6
:10383000215A000C196AA9EC1CF019B624EF1CF0EF
:1038400019A20FD019B407D07F0E216EFF0E206E83
:103850001F6E1E6E25D0800E216E01D0216A000ED3
:10386000F6D719B0FBD71E6A9F0E2260EBD77E0EEB
:103870002264F4D79E0E225C07E0D89021322032D9
:103880001F321E32222AF6D719A40AD01E6C1F1E20
:10389000201E211EE86A1F222022212221AEDED70F
:1038A00012007F0E226EFF0E216E206E1F6E120020
:1038B0007F0E19BEFF0E226E02D07F0E226E800E8A
:1038C000216E206A1F6AF3D719AE04D0800E226ED3
:1038D000216AF7D7226A216AF4D71B501A102B10DD
:1038E0002A10F8E01DBEF0D71BBE0CD01C501D10D6
:1038F000EBE0D8902A362B361A361B361C06D8A099
:103900001D06F2D71D50D4E11C28D2E02AAE11D0FA
:103910007F0E2A1402E12BA00CD02B2AE86A1A226F
:103920001B2207E3D8801B321A322B321C2A1C2898
:10393000BFE01C50C9E02BC01FF01AC020F01B34A0
:10394000216E1C30226E2132229E19BE228E57EF2C
:103950001CF02136223602E31984197E06E1198013
:10396000226A216A206A1F6A1200222803E0D88096
:1039700021321200D890213202E1198212001986F8
:1039800012002636273602E3198C197E06E11988C3
:10399000276A266A256A246A1200272803E0D8804D
:1039A00026321200D8902632EAE1198A1200186AEB
:1039B00026AEE0EF1CF0256C261EE86A2622181EB3
:1039C00021AEE8EF1CF0206C211EE86A2122181EAF
:1039D000C5EC20F021BEF8EF1CF018AE000C206CF6
:1039E000211EE86A21221C6C1D1EE86A1D22000CA3
:1039F00018BEEFEF1CF01988FF0C06EC1DF019B68D
:103A0000000C19B0000C19A4000C010C196AA9ECE7
:103A10001CF0C1EC1CF019B6120019AE08D019A0A8
:103A200004D019A802D01980120019901200275052
:103A3000225C0BE12650215C08E12550205C05E169
:103A400024501F5C02E119801200D8A002D0198E08
:103A500010D0225027C022F0276E215026C021F01E
:103A6000266E205025C020F0256E1F5024C01FF068
:103A7000246E2750225C10E0FF0F09E0199019B462
:103A800003D019AE1984120019AE19941200272A16
:103A9000D89026322532243224501F5E2550205AD9
:103AA0002650215A21BEEAD7D8901F36203621361B
:063AB000222EF8D7C8D752
:0A3AB600DACFE4FFE2CFDAFFE9CF38
:103AC000E4FFEACFE4FFE652F2A41DD0F294110E17
:103AD000D66EC282C2B2FED7C4502C6E2D6A800E42
:103AE0002C5E000E2D5A00016D51EA6AC00FE96E7E
:103AF000010EEA222CC0EFFF6D2B200E6D5D03E15D
:103B00006D6B010E6C6FE552E5CFEAFFE5CFE9FF83
:103B1000E5CFDAFF1100C00E9316956A896A010E8F
:103B2000926E896A8C6A956A8C6A1200100ED56E44
:103B3000FD0ED76E110ED66ED08EF184F28AF294FD
:103B4000D58E1200C26A0E0EC16E2C0EC06EC280DF
:103B50001200D9CFE6FFE1CFD9FF200EE126F00E0B
:103B6000E66EAEEC20F0E552F00EE66EAEEC20F024
:103B7000E552F00EE66EAEEC20F0E552F00EE66E89
:103B8000AEEC20F0E552F00EE66EAEEC20F0E55221
:103B9000C2DFCCDFD7DFE66A7EEC00F0E5523C0EF8
:103BA000E66E330EE66E91EC02F0E552E552F00E51
:103BB000E66EAEEC20F0E552F00EE66EAEEC20F0D4
:103BC000E552F00EE66EAEEC20F0E552F00EE66E39
:103BD000AEEC20F0E552F00EE66EAEEC20F0E552D1
:103BE000F00EE66EAEEC20F0E552F00EE66EAEECB6
:103BF00020F0E552F00EE66EAEEC20F0E552F00E4D
:103C0000E66EAEEC20F0E552F00EE66EAEEC20F083
:103C1000E552F00EE66EAEEC20F0E552F00EE66EE8
:103C2000AEEC20F0E552F00EE66EAEEC20F0E55280
:103C3000F00EE66EAEEC20F0E552F00EE66EAEEC65
:103C400020F0E552E3EC00F0F28E00016C5119E037
:103C5000F29E6C6BD9CFE6FFDACFE6FFC00EE66EC0
:103C6000010EE66E1BEC14F0E552E552E552E5520A
:103C7000D9CFE6FFDACFE6FF82EC0EF0E552E5524F
:103C8000F28EE3D7200EE15C02E2E16AE552E16EDA
:083C9000E552E7CFD9FF120055
:083C980096D8E1CFD9FFE2CF7D
:103CA000DAFF0C0EE12402E3E168E652E16ED9503E
:103CB000FA0FE96EFF0EDA20EA6E080EEECFDBFF98
:103CC000090EEECFDBFF0A0EEECFDBFF0B0EEECFC1
:103CD000DBFF79D8D950080FE96E000EDA20EA6EC2
:103CE000EECFE6FFEECFE6FFEECFE6FFEFCFE6FF4B
:103CF000E8EC1EF0006E060EE15C02E2E16AE552BD
:103D0000E16E0050E76E070EE7CFDBFFDB50840B60
:103D10003AE1070EDB041AE1060EDB5006E0006A0A
:103D2000016A026A800E036E04D0006A016A026AA8
:103D3000036A080E00C0DBFF090E01C0DBFF0A0E9C
:103D400002C0DBFF0B0E03C0DBFF1DD0F80EDBCF84
:103D500000F0F90EDBCF01F0D950040FE96E000E30
:103D6000DA20EA6E0050EE260150ED22D950080FFD
:103D7000E66E000EDA20E66E26D876EC1FF0E552ED
:103D8000E552E552E552080EDBCF00F0090EDBCF1D
:103D900001F00A0EDBCF02F00B0EDBCF03F000C008
:103DA0001EF001C01FF002C020F003C021F00C0E75
:103DB000E15C02E2E16AE552E16EE552E5CFDAFF4D
:103DC000E7CFD9FF1200D9CFE6FFDACFE6FF120026
:103DD000D9CFE6FFDACFE6FFE1CFD9FFE2CFDAFFB6
:103DE000E652006801687F0E026E036AD950FA0F2E
:103DF000E96EFF0EDA20EA6EEE500016EE50011664
:103E0000EE500216EE5003166AD800C0EEFF01C055
:103E1000EEFF02C0EEFF03C0EEFFFD0EDB50800B95
:103E200002E0010E01D0000EE66E59D8060EE9261A
:103E3000000EEA22E552E750EF6EFC0EDBCF00F0F9
:103E4000FD0EDBCF01F0D89000360136FC0E00C02D
:103E5000DBFFFD0E01C0DBFFDB50E66E40D8040E39
:103E6000E926000EEA22E552E750EE6EED6AFD0EFD
:103E7000DB50006E016AFF0E001818E1015016E1D8
:103E80002ED8EECF00F0EECF01F0EECF02F0EFCF64
:103E900003F0005001100210031006E0210E000193
:103EA0006A6F6B6B800E0BD0040E09D0FD0EDB50D9
:103EB00008E115D8EE6AEE6AEE6AEE6A010EDF6E70
:103EC00006D0020EDF6E0BD8EE52EE52EE8EDF50B1
:103ED000E552E552E5CFDAFFE7CFD9FF1200F80E41
:0C3EE000DBCFE9FFF90EDBCFEAFF120098
:043EEC00D9CFE6FF45
:103EF000DACFE6FFE1CFD9FFE2CFDAFF5BD80134BA
:103F000011E20050FE08000E01540CE276D805E0E4
:103F10006CD8800EEE6EEE6847D067D8800EEE6EDD
:103F20007F0E0ED047D8D890015004E6010E005CF9
:103F3000000E01580BE261D805E057D8EE6A800EFA
:103F4000EE6E32D052D8EE6AEE6A2ED047D8EECF5F
:103F500000F0EECF01F0EECF02F0EFCF03F032D859
:103F600000C0EEFF01C0EEFF02C0EEFF03C0EEFF97
:103F700021D80050010B05E025D8020E3AD8EF8E6B
:103F800004D020D8020E35D8EF9E14D8D890013234
:103F9000003218D8030E2DD800C0EFFF1AD804E065
:103FA00011D8030E26D8EF8EE552E5CFDAFFE7CF22
:103FB000D9FF120013D8040E1CD8EECF00F0EFCFBB
:103FC00001F01200FA0EDBCFE9FFFB0EDBCFEAFFB8
:103FD000120004D8060E0DD8EF501200FC0EDBCFF5
:103FE000E9FFFD0EDBCFEAFF1200ECDFEE6AEE6ABE
:103FF0001200E926000EEA221200220E00016A6F6A
:064000006B6BE9EF1FF0FD
:0A4006000E0EF66E000EF76E000EAF
:10401000F86E00010900F550656F0900F550666FF4
:1040200003E1656701D03DD00900F550606F0900DC
:10403000F550616F0900F550626F09000900F550F5
:10404000E96E0900F550EA6E090009000900F55013
:10405000636F0900F550646F09000900F6CF67F03F
:10406000F7CF68F0F8CF69F060C0F6FF61C0F7FFE6
:1040700062C0F8FF0001635302E1645307E00900E6
:10408000F550EE6E6307F8E26407F9D767C0F6FFF4
:1040900068C0F7FF69C0F8FF00016507000E665BA6
:0440A000BFD7120074
:0C40A4001E502302F3CF1AF0F4CF1BF0E3
:1040B0002402F3501B26000EF4201C6E1E50250215
:1040C000F3501C26000EF4201D6E1E502602F350E5
:1040D0001D261F502302F3501B26F4501C22000EF5
:1040E0001D221F502402F3501C26F4501D221F5085
:1040F0002502F3501D2620502302F3501C26F450B5
:104100001D2220502402F3501D2621502302F3507B
:044110001D26120056
:0C4114001D6A1C6A1B6A1A6A200EE76E06
:10412000D8901E361F36203621361A361B361C36DE
:104130001D3623501A5C24501B5825501C582650FD
:104140001D5809E323501A5E24501B5A25501C5A4F
:0C41500026501D5A1E2AE72EE4D712004C
:04415C00FF0EE3501F
:104160002F6EEF0E01D0F30EE76EE72EB5EF20F0C5
:104170000C0E2E6EE76AE72EBBEF20F02E2EBAEF64
:0A41800020F02F2EB3EF20F0120004
:06418A001D6A1C6A100E04
:10419000E76ED890203621361C361D3625501C5C23
:1041A00026501D5805E325501C5E26501D5A202A16
:0641B000E72EF0D712001B
:0A41B600000EF36E00EE00F0040EA0
:1041C00001D81200EA6002D0EE6AFCD7F350E96031
:0641D0001200EE6AFCD7AC
:0A41D60013EE00F023EE00F0F86A8B
:1041E000199C03EC20F003EC00F0A9EC1DF0FBD7C8
:0241F0001200BB
:0E41F200FE0EE3CFE9FFFF0EE3CFEAFFF36A14
:0E420000F46AEE5203E0F34AF42AFBD71200F0
:02420E00FF0EA1
:10421000E350E84E1200000000D000D000D0E82E9D
:04422000FAD71200B7
:0C422400001931475A6A767D7F7D766A6A
:044230005A4731199F
:02423400000088
:0A423600000000000000000000007E
:10424000000000000000000000000000000000006E
:0642500000000000000068
:020000040030CA
:0100000001FE
:010001000EF0
:0100020019E4
:010003001EDE
:010005008377
:010006008178
:00000001FF
