:020000040000FA
:0600000047EF12F01200B0
:020006001200E6
:06000800B7EF0EF012003C
:02000E000200EE
:10001000EA240000E001000010000000E8240000D5
:08002000FC01000002000000D9
:08002800050EE66E61EC12F01A
:10003000E552050EE66E61EC12F0E5528A88050E77
:10004000E66E61EC12F0E552050EE66E61EC12F020
:10005000E5528A981200D9CFE6FFE1CFD9FFE652E8
:100060009568E2DFFE0EDB0401E1DEDF8350DF6E28
:10007000956ADF5000D0E552E552E7CFD9FF120074
:10008000D9CFE6FFE1CFD9FFFE0EDB5003E18A8036
:100090008A920CD0FE0EDB0403E18A908A8206D09D
:1000A000FE0EDB50020802E18A808A82E552E7CF29
:1000B000D9FF1200D9CFE6FFE1CFD9FFFE0EDB500A
:1000C0004009E76EFE0EE7CFDBFFDB508C6EACDF46
:1000D000E552E7CFD9FF1200D9CFE6FFE1CFD9FF34
:1000E000FE0EDB50B809E76EFE0EE7CFDBFFDB50FC
:1000F0008C6E9ADFE552E7CFD9FF1200D9CFE6FF29
:10010000E1CFD9FF020EE126DF6A010EDB6A8A8A9F
:10011000050EE66E61EC12F0E5528A9A050EE66E67
:1001200061EC12F0E5528A8A8A868A94E66AA8DF30
:10013000E552E66A90DFE552100B01E0FAD7010EB6
:10014000E66E9EDFE552E66A86DFE552100B01E0BF
:10015000FAD73F0E8C6E8A968A94020EE66E90DF76
:10016000E55262DFDF6A080EDF5C1CE28A94DFCFB3
:10017000E6FFB2DFE5528A84FE0EDB508C6E010E84
:10018000DB6ADB50006E016AD890015004E6400E35
:10019000005C000E015804E247DF010EDB2AF1D7B4
:1001A000DF2AE1D78A94E66A97DFE552E66A82DFC2
:1001B000E552020EE15C02E2E16AE552E16EE552CF
:1001C000E7CFD9FF1200D9CFE6FFE1CFD9FF020E6A
:1001D000E126DF6A010EDB6A8A968A94020EE66ED9
:1001E0004FDFE552E66A66DFE552DF6A080EDF5C44
:1001F00027E2020EE66E44DFE5528A94DFCFE6FF87
:100200006BDFE5528A84010EDB6ADB50006E016A07
:10021000D890015004E6400E005C000E01580EE23A
:10022000010EE66E2DDFE5528C6AFEDEE66A28DFFF
:10023000E5528C6AF9DE010EDB2AE7D7DF2AD6D732
:10024000020EE15C02E2E16AE552E16EE552E7CFBF
:10025000D9FF1200D9CFE6FFE1CFD9FF020EE12688
:10026000DF6A010EDB6A8A968A94020EE66E08DF68
:10027000E552E66A1FDFE552DF6A080EDF5C57E2EF
:10028000020EE66EFDDEE5528A94DFCFE6FF24DF44
:10029000E5528A84010EDB6ADB50006E016AD89059
:1002A000015004E6400E005C000E01583EE2010ED3
:1002B000E66EE6DEE552010EDB50026E036ADF50A9
:1002C000800DF3500224006EF4500320016EFD0EE9
:1002D000DB500024F66EFE0EDB500120F76E0800A6
:1002E000F5508C6EA1DEE66ACBDEE552010EDB50E6
:1002F000026E036ADF50800DF3500224006EF4504A
:100300000320016E400E0026000E0122FD0EDB5080
:100310000024F66EFE0EDB500120F76E0800F5504B
:100320008C6E82DE010EDB2AB7D7DF2AA6D7020E3B
:10033000E15C02E2E16AE552E16EE552E7CFD9FF06
:100340001200D9CFE6FFE1CFD9FF0A0EE126FE0E5B
:10035000DB04E76EFE0EE7CFDBFFFD0EDB04E76E8E
:10036000FD0EE7CFDBFFFC0EDB04E76EFC0EE7CFF4
:10037000DBFFFB0EDB04E76EFB0EE7CFDBFFFE0EC1
:10038000DBCF00F0FC0EDB50D880005408E3FD0EFC
:10039000DBCF01F0FB0EDB50D880015402E2000EEF
:1003A0005AD2FA0EDB5006E0FA0EDB50FF0802E0EC
:1003B000000E51D2FE0EDB50006E016AD890015043
:1003C00004E6800E005C000E01581CE2FC0EDB50BF
:1003D000026E036AD890035004E6800E025C000EA1
:1003E000035810E2400EF36EFD0EDBCFF4FFF35026
:1003F000F45C08E2400EF36EFB0EDBCFF4FFF3502B
:10040000F45C02E3000E27D2FD0EDB50F80BE8424D
:10041000E842E842E76E030EE7CFDBFFFB0EDB505E
:10042000F80BE842E842E842E76E040EE7CFDBFF54
:10043000FD0EDB50070BE76E050EE7CFDBFFFB0E73
:10044000DB50070BE76E060EE7CFDBFF030EDB503A
:10045000DF6E040EDB50D880DF5401E2FAD1020EC9
:10046000E66E0EDEE5528A968A94DFCFE6FF34DE32
:10047000E552400EF36EFE0EDBCFF4FFF350F45C5A
:1004800011E2010EF36E070EF3CFDBFFDBCFE6FFC9
:10049000F7DDE5528A968A94FE0EDBCFE6FF0ADE90
:1004A000E5520ED0070EDB6ADBCFE6FFE9DDE55251
:1004B0008A968A94FE0EDB50C00FE66EFBDDE55295
:1004C000FE0EDB04E76E020EE7CFDBFF030EDB5010
:1004D000DF5C01E07CD0040EDB50DF5C01E177D013
:1004E000FE0EDB50E76E010EE7CFDBFFDBCF00F047
:1004F000FC0EDB50D880005469E3400EF36E010E11
:10050000DBCFF4FFF350F45C07E2010EDB50E76E43
:10051000020EE7CFDBFF1AD0010EDB50400810E1DE
:10052000020EDB6A070EDB6ADBCFE6FFA9DDE552D0
:100530008A968A94020EDBCFE6FFBCDDE55206D038
:10054000020EDB28E76E020EE7CFDBFF8A868A8485
:10055000010EE66E80DDE552E76E080EE7CFDBFFA9
:100560008A968A94020EDBCFE6FFA4DDE552FA0EEE
:10057000DB5013E1080EDBCFE6FF050EDB50F76A18
:10058000AA0FF66E240EF7220800F550E552E71484
:10059000E76E090EE7CFDBFF12D0080EDBCFE6FFD8
:1005A000050EDB50F76AAA0FF66E240EF72208003C
:1005B000F51CE552E710E76E090EE7CFDBFFDB50D5
:1005C0008C6E8A8431DD010EDB2A90D740D1040E77
:1005D000DB50DF5C01E07CD0030EDB50DF5C01E12F
:1005E00077D0FE0EDB50E76E010EE7CFDBFFDBCFEF
:1005F00000F0FC0EDB50D880005469E3400EF36E2F
:10060000010EDBCFF4FFF350F45C07E2010EDB5088
:10061000E76E020EE7CFDBFF1AD0010EDB50400879
:1006200010E1020EDB6A070EDB6ADBCFE6FF28DD96
:10063000E5528A968A94020EDBCFE6FF3BDDE55257
:1006400006D0020EDB28E76E020EE7CFDBFF8A86BC
:100650008A84010EE66EFFDCE552E76E080EE7CFF6
:10066000DBFF8A968A94020EDBCFE6FF23DDE5529C
:10067000FA0EDB5013E1080EDBCFE6FF060EDB506F
:10068000F76AB20FF66E240EF7220800F550E55215
:10069000E714E76E090EE7CFDBFF12D0080EDBCFC1
:1006A000E6FF060EDB50F76AB20FF66E240EF72255
:1006B0000800F51CE552E710E76E090EE7CFDBFFF7
:1006C000DB508C6E8A84B0DC010EDB2A90D7BFD061
:1006D000040EDB50F36E030EDB50F35C01E08DD0B3
:1006E000FE0EDB50E76E010EE7CFDBFFDBCF00F045
:1006F000FC0EDB50D880005401E27ED0400EF36E39
:10070000010EDBCFF4FFF350F45C07E2010EDB5087
:10071000E76E020EE7CFDBFF19D0010EDB50400879
:100720000FE1070EDB6ADBCFE6FFAADCE552020E23
:10073000DB6A8A968A94DBCFE6FFBCDCE55206D002
:10074000020EDB28E76E020EE7CFDBFF8A868A8483
:10075000010EE66E80DCE552E76E080EE7CFDBFFA8
:100760008A968A94020EDBCFE6FFA4DCE552FA0EED
:10077000DB501EE1080EDBCFE6FF050EDB50F76A0B
:10078000AA0FF66E240EF7220800F5CF00F0060E31
:10079000DB50F76AB20FF66E240EF7220800F55010
:1007A0000010E552E714E76E090EE7CFDBFF1DD01E
:1007B000080EDBCFE6FF050EDB50F76AAA0FF66ED8
:1007C000240EF7220800F51C006E060EDB50F76AB7
:1007D000B20FF66E240EF7220800F51C0014E55245
:1007E000E710E76E090EE7CFDBFFDB508C6E8A84E3
:1007F0001BDC010EDB2A7AD72AD0FA0EDB508C6E76
:100800008A848A96FE0EDB50E76E010EE7CFDBFF8F
:10081000DBCF00F0FC0EDB50D880005418E3010E53
:10082000DB5040080FE1070EDB6ADBCFE6FF28DC78
:10083000E5528A968A94E66A3DDCE552FA0EDB5070
:100840008C6E8A8414EC00F0010EDB2AE1D7DF2ADB
:1008500000D6010E00D0006E0A0EE15C02E2E16AF1
:10086000E552E16E0050E552E7CFD9FF1200D9CF33
:10087000E6FFE1CFD9FF150EE126100EDB6AF36E1D
:10088000DBCFF4FFF350F45C5AE2100EDB50E76E5E
:10089000FD0EDBCFE9FFFE0EDBCFEAFFE750E926D6
:1008A000000EEA22EF50E66ED9CF00F0DACF01F069
:1008B000100EDB500F010024E96E000E0120EA6EDD
:1008C000E552E750EF6ED9CF02F0DACF03F0100E09
:1008D000DB500224E96E000E0320EA6EEF50E84080
:1008E000E8403F0BE66ED9CF00F0DACF01F0100EF2
:1008F000DB500024E96E000E0120EA6EE552E7505D
:10090000EF6ED9CF00F0DACF01F0100EDB500024EB
:10091000E96E000E0120EA6EEF5040080DE2D9CFDB
:1009200000F0DACF01F0100EDB500024E96E000E6B
:100930000120EA6E400EEF6E100EDB2AA0D7010EEA
:10094000F36E110EF3CFDBFF080EF36E120EF3CF32
:10095000DBFF100EDB6AF36EDBCFF4FFF350F45CC9
:1009600001E3E8D0D9CF01F0DACF02F0100EDB506E
:100970000F010124E96E000E0220EA6EEFCF00F0B5
:10098000100EDB50EA6AE00FE96E010EEA22EF502A
:10099000D880005434E2400E006ED9CF01F0DACF97
:1009A00002F0100EDB500124E96E000E0220EA6E08
:1009B000EF50005CE76E130EE7CFDBFF400E006EDA
:1009C000100EDB50EA6AE00FE96E010EEA22EF50EA
:1009D000005CE76E140EE7CFDBFFE668DBCFE6FFD7
:1009E000120EDBCFE6FF130EDBCFE6FF110EDBCFDF
:1009F000E6FFA7DC006E050EE15E00504AD0D9CFBD
:100A000001F0DACF02F0100EDB500124E96E000E87
:100A10000220EA6EEFCF00F0100EDB50EA6AE00F22
:100A2000E96E010EEA22EF50005C33E2400E006EE8
:100A3000100EDB50EA6AE00FE96E010EEA22EF5079
:100A4000005CE76E130EE7CFDBFF400E006ED9CFE0
:100A500001F0DACF02F0100EDB500124E96E000E37
:100A60000220EA6EEF50005CE76E140EE7CFDBFF6A
:100A7000E66ADBCFE6FF120EDBCFE6FF130EDBCF1D
:100A8000E6FF110EDBCFE6FF5CDC006E050EE15EDB
:100A90000050D9CF00F0DACF01F0100EDB500F017B
:100AA0000024E96E000E0120EA6EEF50E66E100E93
:100AB000DB50EA6AE00FE96E010EEA22E552E750E8
:100AC000EF6E080E006E110EDBCFE7FF0050E72639
:100AD000110EE7CFDBFF080E006E120EDBCFE7FF33
:100AE0000050E726120EE7CFDBFF110EDB50006E41
:100AF000016AD890015004E6800E005C000E015897
:100B000005E3800EF36E110EF3CFDBFF120EDB5008
:100B1000006E016AD890015004E6800E005C000E61
:100B2000015805E3800EF36E120EF3CFDBFF100EBB
:100B3000DB2A11D7150EE15C02E2E16AE552E16EB3
:080B4000E552E7CFD9FF1200D6
:080B4800D9CFE6FFE1CFD9FF90
:100B5000440EE126DF6A200EDF5C01E3B6D0100E02
:100B6000DF5C19E2DF50F76AD80FF66E240EF72229
:100B70000800F550E66ED950040F006EDACF01F090
:100B8000DF500F010024E96E000E0120EA6EE552ED
:100B9000E750EF6E1ED0100EDF5C1BE3100EDF5C23
:100BA000F76AD80FF66E240EF7220800F550FF0DF5
:100BB000F350E66ED950040F006EDACF01F0DF502B
:100BC0000F010024E96E000E0120EA6EE552E750A5
:100BD000EF6E080EDF5C1AE2080EDF24F76AD80F0A
:100BE000F66E240EF7220800F550E66ED950240F59
:100BF000006EDACF01F0DF500F010024E96E000E25
:100C00000120EA6EE552E750EF6E3ED0080EDF5C41
:100C10001FE3180EDF5C1CE2080EDF5CF76AD80FDA
:100C2000F66E240EF7220800F550FF0DF350E66E25
:100C3000D950240F006EDACF01F0DF500F010024ED
:100C4000E96E000E0120EA6EE552E750EF6E1CD00F
:100C5000180EDF5C19E3180EDF5CF76AD80FF66E2A
:100C6000240EF7220800F550E66ED950240F006ECE
:100C7000DACF01F0DF500F010024E96E000E0120F1
:100C8000EA6EE552E750EF6E100EDF5C1CE2DF50BB
:100C9000040DF3CFE9FFF4CFEAFF400EE926010E81
:100CA000EA22EE6AEE6AEE6AEE6ADF50040DF3CFD6
:100CB000E9FFF4CFEAFF800EE926010EEA22EE6A90
:100CC000EE6AEE6AEE6ADF2A46D7010EDB6A100E84
:100CD000F36E010EDBCFF4FFF350F45C01E366D258
:100CE000020EDB6A200EF36E020EDBCFF4FFF35030
:100CF000F45C01E3C6D0010EDBCFE6FF020EDB5051
:100D0000E552E702F3501F0BE76E030EE7CFDBFF60
:100D1000020EDB50E76EFD0EDBCFE9FFFE0EDBCFF0
:100D2000EAFFE750E926000EEA22EFCF0AF00B6A4D
:100D30000C6A0D6A0AAE03D00B680C680D68D950B6
:100D4000040F086EDACF09F0030EDB500F01082400
:100D5000E96E000E0920EA6EEFCF04F0056A066A1C
:100D6000076A04AE03D005680668076804C01EF071
:100D700005C01FF006C020F007C021F00AC023F014
:100D80000BC024F00CC025F00DC026F0AEEC11F025
:100D90001AC000F01BC001F01CC002F01DC003F01F
:100DA000010EDB50040DF3CFE9FFF4CFEAFF400E54
:100DB000E926010EEA220050EE260150EE220250F2
:100DC000EE220350EE22020EDB50E76EFD0EDBCF6B
:100DD000E9FFFE0EDBCFEAFFE750E926000EEA222C
:100DE000EFCF0AF00B6A0C6A0D6A0AAE03D00B68EB
:100DF0000C680D68D950240F086EDACF09F0030E85
:100E0000DB500F010824E96E000E0920EA6EEFCFD7
:100E100004F0056A066A076A04AE03D0056806682E
:100E2000076804C01EF005C01FF006C020F007C010
:100E300021F00AC023F00BC024F00CC025F00DC037
:100E400026F0AEEC11F01AC000F01BC001F01CC07F
:100E500002F01DC003F0010EDB50040DF3CFE9FFDB
:100E6000F4CFEAFF800EE926010EEA220050EE26BA
:100E70000150EE220250EE220350EE22020EDB2A37
:100E800031D7010EDB50040DF3CFE9FFF4CFEAFFB9
:100E9000400EE926010EEA22100E236E246A256A0E
:100EA000266AEECF1EF0EECF1FF0EECF20F0EFCF90
:100EB00021F042EC0DF021C0EDFF20C0EDFF1FC07E
:100EC000EDFF1EC0EFFF010EDB50040DF3CFE9FF75
:100ED000F4CFEAFF800EE926010EEA22100E236EFF
:100EE000246A256A266AEECF1EF0EECF1FF0EECF01
:100EF00020F0EFCF21F042EC0DF021C0EDFF20C03B
:100F0000EDFF1FC0EDFF1EC0EFFF010EDB50040D13
:100F1000F3CFE9FFF4CFEAFF400EE926010EEA2203
:100F2000EECF0CF0EECF0DF0EECF0EF0EFCF0FF0D6
:100F3000010EDB50040DF3CFE9FFF4CFEAFF400EC2
:100F4000E926010EEA22EECF08F0EECF09F0EECF4F
:100F50000AF0EFCF0BF008C01EF009C01FF00AC066
:100F600020F00BC021F00CC023F00DC024F00EC007
:100F700025F00FC026F0AEEC11F01AC004F01BC033
:100F800005F01CC006F01DC007F0010EDB50040D7B
:100F9000F3CFE9FFF4CFEAFF800EE926010EEA2243
:100FA000EECF14F0EECF15F0EECF16F0EFCF17F036
:100FB000010EDB50040DF3CFE9FFF4CFEAFF800E02
:100FC000E926010EEA22EECF10F0EECF11F0EECFBF
:100FD00012F0EFCF13F010C01EF011C01FF012C0BE
:100FE00020F013C021F014C023F015C024F016C067
:100FF00025F017C026F0AEEC11F004501A24006E54
:1010000005501B20016E06501C20026E07501D204B
:10101000036E010EDB50040DF3CFE9FFF4CFEAFFBE
:10102000000EE926010EEA2200C0EEFF01C0EEFF2D
:1010300002C0EEFF03C0EEFF010EDB50040DF3CF44
:10104000E9FFF4CFEAFF000EE926010EEA22EECF17
:101050000CF0EECF0DF0EECF0EF0EFCF0FF00CC096
:101060001EF00DC01FF00EC020F00FC021F027ECC5
:101070000DF01FC008F020C009F021C00AF022C006
:101080000BF008C0E6FF09C0E6FF0AC0E6FF0BC090
:10109000E6FF06EC09F0E552E552E552E5521EC0C6
:1010A00004F01FC005F020C006F021C007F004C006
:1010B0001FF005C020F006C021F007C022F076EC3A
:1010C0000DF01EC000F01FC001F020C002F021C0D2
:1010D00003F0010EDB50040DF3CFE9FFF4CFEAFF7C
:1010E000000EE926010EEA2200C0EEFF01C0EEFF6D
:1010F00002C0EEFF03C0EEFF010EDB50040DF3CF84
:10110000E9FFF4CFEAFF000EE926010EEA22060EFF
:10111000E76ED890030EEB32020EEB32010EEB328B
:10112000EF32E706F6E1DB50040DF3CFE9FFF4CF31
:10113000EAFF000EE926010EEA22D880FF0EEE54E7
:10114000000EEE54000EEE54000EEE540FE2010EAF
:10115000DB50040DF3CFE9FFF4CFEAFF000EE926E0
:10116000010EEA22EE68EE6AEE6AEE6A010EDB50CC
:10117000040DF3CFE9FFF4CFEAFF000EE926010EDC
:10118000EA22EF50E66E010EDB50E76EFB0EDBCF7E
:10119000E9FFFC0EDBCFEAFFE750E926000EEA226A
:1011A000E552E750EF6E010EDB2A91D5100EDF6E8F
:1011B000200EDF5C21E21F0ED880DF54E76EFB0EAD
:1011C000DBCFE9FFFC0EDBCFEAFFE750E926000E9C
:1011D000EA22EF50E66EDF50E76EFB0EDBCFE9FF51
:1011E000FC0EDBCFEAFFE750E926000EEA22E552CB
:1011F000E750EF6EDF2ADCD7440EE15C02E2E16AE1
:0C120000E552E16EE552E7CFD9FF120085
:04120C00D9CFE6FF51
:10121000DACFE6FFE1CFD9FFE2CFDAFF240EE124F7
:1012200002E3E168E652E16ED950FA0FE96EFF0E73
:10123000DA20EA6E020EEECFDBFF030EEECFDBFF0D
:10124000040EEECFDBFF050EEECFDBFFE8D9F2D9BF
:1012500044EC10F0006E060EE15C02E2E16AE55239
:10126000E16E0050E76E0D0EE7CFDBFFDB5080082C
:1012700015E0A0D9246A256A266A276A00C01FF0F3
:1012800001C020F002C021F003C022F059EC0EF0A2
:10129000010A10E1210E0101FA6FFB6B020EDB68FF
:1012A000030EDB68040EDB687F0EF36E050EF3CFD2
:1012B000DBFF66D10D0EDB50050B01E061D10A0E9C
:1012C000DBCF00F00B0EDBCF01F0830E0026FF0E0C
:1012D000012200C0DEFF01C0DDFFD950060F65D935
:1012E00076D9DF50010B0FE0DF06010E01E2DB06CD
:1012F000D950180F5AD9D890EF36010EEB36020E9E
:10130000EB36030EEB36D9CFE9FFDACFEAFF020E58
:10131000256E266AEECF20F0EDCF21F033EC0EF0F3
:1013200020C0EEFF21C0EDFF140EDB6A150EDB6A54
:10133000160EDB6A170EDB6A1C0EDB6A1D0EDB6AFB
:101340001E0EDB6A010EF36E1F0EF3CFDBFF010EE4
:10135000F36E0E0EF3CFDBFF0F0EDB6A0E0EDBCF4C
:1013600000F00F0EDBCF01F0D890015004E61A0E0A
:10137000005C000E015801E398D0180EDBCF00F09E
:10138000190EDBCF01F01A0EDBCF02F01B0EDBCF04
:1013900003F0010E1F0B07E0D8900036013602362D
:1013A0000336E806F9E1180E00C0DBFF190E01C094
:1013B000DBFF1A0E02C0DBFF1B0E03C0DBFF140EA7
:1013C000DBCF08F0150EDBCF09F0160EDBCF0AF0ED
:1013D000170EDBCF0BF0010E1F0B07E0D89008367D
:1013E00009360A360B36E806F9E1D9501C0FDDD86C
:1013F0000850EE24046E0950EE20056E0A50EE20CF
:10140000066E0B50EE20076ED950180FCED8045040
:10141000EE5C006E0550EE58016E0650EE58026EFE
:101420000750EE58036E200E00C0DBFF210E01C0F6
:10143000DBFF220E02C0DBFF230E03C0DBFF200E0A
:10144000DBCF1FF0210EDBCF20F0220EDBCF21F00F
:10145000230EDBCF22F02234000E221809E6D880BA
:10146000000E1F54000E2054000E2154000E225472
:1014700011E2D950200F99D8AAD8D8D81C0EDB5029
:10148000EE121D0EDB50EE121E0EDB50EE121F0E82
:10149000DB50EE12D9501C0F88D8AFD80E0EDB2AC5
:1014A0000F0E01E25BD7DB2A59D7C9D8100E00C056
:1014B000DBFF110E01C0DBFF180EDBCF20F0190E91
:1014C000DBCF21F0120E20C0DBFF130E21C0DBFFAB
:1014D000ADD893D8D950100F68D8EE50ED1012E067
:1014E000D950120F62D8EE50ED1006E1A8D8005086
:1014F00001100210031006E099D8EE2A000EEE2229
:10150000EE22EE220C0EDB6A91D8060EEECFDBFF48
:10151000070EEECFDBFF080EEECFDBFF090EEECF9E
:10152000DBFF7E0EF36E0A0EF3CFDBFF0B0EDB6AE2
:10153000D950020FE66E000EDA20E66E70D8D2ECBB
:1015400010F0E552E552E552E552DECFE6FFDDCF81
:10155000E6FF70D8A8EC0FF0006E060EE15C02E228
:10156000E16AE552E16E0050020E1EC0DBFF030E81
:101570001FC0DBFF040E20C0DBFF050E21C0DBFF18
:1015800019D800C01EF001C01FF002C020F003C037
:1015900021F0240EE15C02E2E16AE552E16EE552DF
:1015A000E5CFDAFFE7CFD9FF1200E96E000EDA20AF
:1015B000EA6E1200020EDBCF00F0030EDBCF01F06B
:1015C000040EDBCF02F0050EDBCF03F01200180E85
:1015D000EECFDBFF190EEECFDBFF1A0EEECFDBFFF7
:1015E0001B0EEECFDBFF1200EECFE6FFEECFE6FFE5
:1015F000EECFE6FFEFCFE6FF1200D890030EEB32FE
:10160000020EEB32010EEB32EF321200EE500016FA
:10161000EE500116EE500216EE5003161200D9508D
:10162000060FE66E000EDA20E66E1200D950140F97
:10163000D5EF0AF0D950020FB8DFF4EF0AF0010E2F
:0E164000006E016A026A036AF1DF06EF0BF02A
:02164E0000009A
:10165000000000000000000000000000000000008A
:10166000000000000000000000000000000000007A
:10167000000000000000000000000000000000006A
:10168000000000000000000000000000000000005A
:10169000000000000000000000000000000000004A
:1016A000000000000000000000000000000000003A
:1016B000000000000000000000000000000000002A
:1016C000000000000000000000000000000000001A
:1016D0000000000000000002FEFEFEFEFE42E2FAF4
:1016E000060E1E000202FE1E3E7EFEFCF0E2C20658
:1016F000FE06020038FCFEFEF2E2E2C6C49E0000D6
:1017000002FEFEFEFEFE02000000F0F8FCFEFE02FD
:101710000202040C3E00000000C038063EFEFEFE41
:10172000F8E00000000002FEFEFEFEFE42E2FA06C5
:101730000E1E000202FE1E3E7EFEFCF0E2C206FE0F
:101740000602000000000000000000000000000091
:1017500000000000000000101F1F1F1F1F101013AB
:10176000181C1E0010181F1810000103071F1F1F50
:101770001F0000001C08101111131F0F0F0700009D
:10178000101F1F1F1F1F1000000003070F1F1F1037
:1017900010101008040010181E1312020212171F56
:1017A0001F1F1F1C1000101F1F1F1F1F10101318BA
:1017B0001C1E0010181F1810000103071F1F1F1FF9
:1017C0000000000000000000000000000000000019
:1017D0000000000000000000000000000000000009
:1017E00000000000000000000000000000000000F9
:1017F00000000000000000000000000000000000E9
:1018000000000000000000000000000000000000D8
:1018100000000000000000000000000000000000C8
:1018200000000000000000000000000000000000B8
:1018300000000000000000000000000000000000A8
:101840000000000000000000000000000000000098
:101850000000000000000000000000000000000088
:101860000000000000000000000000000000000078
:101870000000000000000000000000000000000068
:101880000000000000000000000000000000000058
:101890000000000000000000000000000000000048
:1018A0000000000000000000000000000000000038
:1018B0000000000000000000000000000000000028
:1018C0000000000000000000000000000000000018
:1018D00000008040402090909090901010101010C8
:1018E00010101010101010909010101010101010F8
:1018F00010101010101010101090901010101010E8
:1019000090901010101010101010101010109090D7
:1019100010101010109090909010101010101010C7
:101920001010101010101010109010101010101037
:1019300010101010101010101010101010101010A7
:101940001010101010204040800000000000000027
:10195000001E618080007F7F444444007E7E02023E
:101960007E7E02027E7C007F7F42427E3C003C7E87
:101970004A4A6E2C003C7E42427F7F003C7E4242BF
:101980007F7F003C7E4A4A6E2C003C7E42427F7F35
:101990000000000027674C4C7939021EFCE07C1ED9
:1019A000022C6E5A5A7634023F7F42003C7E4A4AED
:1019B0006E2C007E7E02027E7E02027E7C002C6EF9
:1019C0005A5A763400008080611E0000000000003A
:1019D00000000000000102020202020202020202F2
:1019E00002020202020202020202020202020202D7
:1019F00002020202020202020202020202020202C7
:101A000002020202020202020202020202020202B6
:101A100002020202020202020202030303020202A3
:101A20000202020202020202020202020202020296
:101A30000202020202020202020202020202020286
:0E1A400002020202020100000000000000008D
:021A4E00199EDF
:101A50000CD0199E21AE09D01E6C1F1E201E211E07
:101A6000E86A1F2220222122198E21C01BF020C0EB
:101A70001AF01FC02BF01EC02AF09E0E1C6E1D6AAD
:101A8000C9EF0DF0186AE86A26AE4FEF0DF0236C2F
:101A9000241E251E261E242225222622181E21AEA3
:101AA0005AEF0DF01E6C1F1E201E211E1F22202229
:101AB0002122181EE6EC11F021BE71EF0DF018AED8
:101AC000000C1E6C1F1E201E211EE86A1F222022F1
:101AD00021221A6C1B1E1C1E1D1E1B221C221D22D5
:101AE000000C18BE61EF0DF01988FF0C196A05ECA7
:101AF0000EF019B680EF0DF019A20FD019B407D06F
:101B00007F0E216EFF0E206E1F6E1E6E25D0800E82
:101B1000216E01D0216A000EF6D719B0FBD71E6ADC
:101B20009F0E2260EBD77E0E2264F4D79E0E225CBD
:101B300007E0D890213220321F321E32222AF6D7F7
:101B400019A40AD01E6C1F1E201E211EE86A1F2227
:101B50002022212221AEDED712007F0E226EFF0E40
:101B6000216E206E1F6E12007F0E19BEFF0E226EB8
:101B700002D07F0E226E800E216E206A1F6AF3D77C
:101B800019AE04D0800E226E216AF7D7226A216A2C
:101B9000F4D71B501A102B102A10F8E01DBEF0D7F6
:101BA0001BBE0CD01C501D10EBE0D8902A362B36F3
:101BB0001A361B361C06D8A01D06F2D71D50D4E1DC
:101BC0001C28D2E02AAE11D07F0E2A1402E12BA0ED
:101BD0000CD02B2AE86A1A221B2207E3D8801B327A
:101BE0001A322B321C2A1C28BFE01C50C9E02BC023
:101BF0001FF01AC020F01B34216E1C30226E2132DF
:101C0000229E19BE228EB3EF0DF02136223602E35A
:101C10001984197E06E11980226A216A206A1F6AE6
:101C20001200222803E0D88021321200D8902132FD
:101C300002E119821200198612002636273602E3C5
:101C4000198C197E06E11988276A266A256A246A92
:101C50001200272803E0D88026321200D8902632BE
:101C6000EAE1198A1200186A26AE3CEF0EF0256CE4
:101C7000261EE86A2622181E21AE44EF0EF0206CC4
:101C8000211EE86A2122181E21EC12F021BE54EF19
:101C90000EF018AE000C206C211EE86A21221C6C8C
:101CA0001D1EE86A1D22000C18BE4BEF0EF01988AD
:101CB000FF0C62EC0EF019B6000C19B0000C19A460
:101CC000000C010C196A05EC0EF01DEC0EF019B6B3
:101CD000120019AE08D019A004D019A802D019809A
:101CE0001200199012002750225C0BE12650215C53
:101CF00008E12550205C05E124501F5C02E11980B9
:101D00001200D8A002D0198E10D0225027C022F085
:101D1000276E215026C021F0266E205025C020F0CD
:101D2000256E1F5024C01FF0246E2750225C10E047
:101D3000FF0F09E0199019B403D019AE19841200ED
:101D400019AE19941200272AD8902632253224324F
:101D500024501F5E2550205A2650215A21BEEAD712
:0E1D6000D8901F3620362136222EF8D7C8D74D
:021D6E00DACFCA
:101D7000E4FFE2CFDAFFE9CFE4FFEACFE4FFE65287
:101D8000F2A41DD0F294110ED66EC282C2B2FED75A
:101D9000C4502C6E2D6A800E2C5E000E2D5A01014F
:101DA000FD51EA6AC00FE96E010EEA222CC0EFFF76
:101DB000FD2B200EFD5D03E1FD6B010EFC6FE55276
:101DC000E5CFEAFFE5CFE9FFE5CFDAFF1100C00E6E
:101DD0009316956A896A010E926E896A8C6A956A71
:101DE0008C6A1200100ED56EFD0ED76E110ED66ED7
:101DF000D08EF184F28AF294D58E1200C26A0E0E51
:101E0000C16E2C0EC06EC2801200D9CFE6FFE1CFAA
:101E1000D9FF200EE126F00EE66E0AEC12F0E55234
:101E2000F00EE66E0AEC12F0E552F00EE66E0AECE9
:101E300012F0E552F00EE66E0AEC12F0E552F00EEA
:101E4000E66E0AEC12F0E552C2DFCCDFD7DFE66ABD
:101E50007EEC00F0E5524E0EE66E160EE66E2AECB3
:101E600001F0E552E552F00EE66E0AEC12F0E55292
:101E7000F00EE66E0AEC12F0E552F00EE66E0AEC99
:101E800012F0E552F00EE66E0AEC12F0E552F00E9A
:101E9000E66E0AEC12F0E552F00EE66E0AEC12F075
:101EA000E552F00EE66E0AEC12F0E552F00EE66E28
:101EB0000AEC12F0E552F00EE66E0AEC12F0E55272
:101EC000F00EE66E0AEC12F0E552F00EE66E0AEC49
:101ED00012F0E552F00EE66E0AEC12F0E552F00E4A
:101EE000E66E0AEC12F0E552F00EE66E0AEC12F025
:101EF000E552F00EE66E0AEC12F0E552E3EC00F06B
:101F0000F28E0101FC5119E0F29EFC6BD9CFE6FF85
:101F1000DACFE6FFC00EE66E010EE66EA4EC05F029
:101F2000E552E552E552E552D9CFE6FFDACFE6FFBA
:101F300037EC04F0E552E552F28EE3D7200EE15C77
:101F400002E2E16AE552E16EE552E7CFD9FF120005
:101F500096D8E1CFD9FFE2CFDAFF0C0EE12402E3FD
:101F6000E168E652E16ED950FA0FE96EFF0EDA2011
:101F7000EA6E080EEECFDBFF090EEECFDBFF0A0E96
:101F8000EECFDBFF0B0EEECFDBFF79D8D950080F79
:101F9000E96E000EDA20EA6EEECFE6FFEECFE6FF46
:101FA000EECFE6FFEFCFE6FF44EC10F0006E060E3A
:101FB000E15C02E2E16AE552E16E0050E76E070E75
:101FC000E7CFDBFFDB50840B3AE1070EDB041AE1BD
:101FD000060EDB5006E0006A016A026A800E036E9C
:101FE00004D0006A016A026A036A080E00C0DBFFBF
:101FF000090E01C0DBFF0A0E02C0DBFF0B0E03C09F
:10200000DBFF1DD0F80EDBCF00F0F90EDBCF01F0C7
:10201000D950040FE96E000EDA20EA6E0050EE2669
:102020000150ED22D950080FE66E000EDA20E66E60
:1020300026D8D2EC10F0E552E552E552E552080EF2
:10204000DBCF00F0090EDBCF01F00A0EDBCF02F090
:102050000B0EDBCF03F000C01EF001C01FF002C06A
:1020600020F003C021F00C0EE15C02E2E16AE552CF
:10207000E16EE552E5CFDAFFE7CFD9FF1200D9CF05
:08208000E6FFDACFE6FF1200D3
:08208800D9CFE6FFDACFE6FF35
:10209000E1CFD9FFE2CFDAFFE652006801687F0E98
:1020A000026E036AD950FA0FE96EFF0EDA20EA6E6B
:1020B000EE500016EE500116EE500216EE500316CA
:1020C0006AD800C0EEFF01C0EEFF02C0EEFF03C001
:1020D000EEFFFD0EDB50800B02E0010E01D0000E82
:1020E000E66E59D8060EE926000EEA22E552E750C0
:1020F000EF6EFC0EDBCF00F0FD0EDBCF01F0D890D1
:1021000000360136FC0E00C0DBFFFD0E01C0DBFF18
:10211000DB50E66E40D8040EE926000EEA22E552B6
:10212000E750EE6EED6AFD0EDB50006E016AFF0EA9
:10213000001818E1015016E12ED8EECF00F0EECFD6
:1021400001F0EECF02F0EFCF03F0005001100210CB
:10215000031006E0210E0101FA6FFB6B800E0BD01D
:10216000040E09D0FD0EDB5008E115D8EE6AEE6AC8
:10217000EE6AEE6A010EDF6E06D0020EDF6E0BD83D
:10218000EE52EE52EE8EDF50E552E552E5CFDAFF29
:10219000E7CFD9FF1200F80EDBCFE9FFF90EDBCF56
:0421A000EAFF120040
:0C21A400D9CFE6FFDACFE6FFE1CFD9FF8C
:1021B000E2CFDAFF5BD8013411E20050FE08000ED6
:1021C00001540CE276D805E06CD8800EEE6EEE6815
:1021D00047D067D8800EEE6E7F0E0ED047D8D890CD
:1021E000015004E6010E005C000E01580BE261D8BC
:1021F00005E057D8EE6A800EEE6E32D052D8EE6A05
:10220000EE6A2ED047D8EECF00F0EECF01F0EECF41
:1022100002F0EFCF03F032D800C0EEFF01C0EEFFB6
:1022200002C0EEFF03C0EEFF21D80050010B05E015
:1022300025D8020E3AD8EF8E04D020D8020E35D819
:10224000EF9E14D8D8900132003218D8030E2DD842
:1022500000C0EFFF1AD804E011D8030E26D8EF8E85
:10226000E552E5CFDAFFE7CFD9FF120013D8040E0D
:102270001CD8EECF00F0EFCF01F01200FA0EDBCF4A
:10228000E9FFFB0EDBCFEAFF120004D8060E0DD8E3
:10229000EF501200FC0EDBCFE9FFFD0EDBCFEAFFB3
:1022A0001200ECDFEE6AEE6A1200E926000EEA2266
:0E22B0001200220E0101FA6FFB6B45EF11F0D8
:0222BE000E0E02
:1022C000F66E000EF76E000EF86E01010900F55073
:1022D000F56F0900F550F66F03E1F56701D03DD0C9
:1022E0000900F550F06F0900F550F16F0900F55045
:1022F000F26F09000900F550E96E0900F550EA6E29
:10230000090009000900F550F36F0900F550F46F5A
:1023100009000900F6CFF7F1F7CFF8F1F8CFF9F19E
:10232000F0C1F6FFF1C1F7FFF2C1F8FF0101F3536D
:1023300002E1F45307E00900F550EE6EF307F8E20E
:10234000F407F9D7F7C1F6FFF8C1F7FFF9C1F8FFB5
:0C2350000101F507000EF65BBFD712007C
:04235C001E502302EA
:10236000F3CF1AF0F4CF1BF02402F3501B26000E1B
:10237000F4201C6E1E502502F3501C26000EF42083
:102380001D6E1E502602F3501D261F502302F350CF
:102390001B26F4501C22000E1D221F502402F35055
:1023A0001C26F4501D221F502502F3501D262050DC
:1023B0002302F3501C26F4501D2220502402F35017
:0C23C0001D2621502302F3501D261200A0
:0423CC001D6A1C6A00
:1023D0001B6A1A6A200EE76ED8901E361F3620360A
:1023E00021361A361B361C361D3623501A5C2450F3
:1023F0001B5825501C5826501D5809E323501A5EBF
:1024000024501B5A25501C5A26501D5A1E2AE72EAE
:04241000E4D71200FB
:0C241400FF0EE3502F6EEF0E01D0F30E10
:10242000E76EE72E11EF12F00C0E2E6EE76AE72E24
:1024300017EF12F02E2E16EF12F02F2E0FEF12F0D4
:02244000120088
:0E2442001D6A1C6A100EE76ED89020362136F7
:102450001C361D3625501C5C26501D5805E32550A2
:0E2460001C5E26501D5A202AE72EF0D71200CF
:02246E00000E5E
:10247000F36E00EE00F0040E01D81200EA6002D004
:0E248000EE6AFCD7F350E9601200EE6AFCD75A
:02248E0013EE4B
:1024900000F023EE00F0F86A199C5FEC11F003ECF9
:0A24A00000F005EC0FF0FBD712006E
:0624AA00000103070F1FF3
:1024B0003F7FFEFCF8F0E0C080000102040810201D
:0224C00040805A
:0E24C200FF0EE350E84E1200000000D000D0E4
:0824D00000D0E82EFAD712003B
:0824D800001931475A6A767DB4
:0824E0007F7D766A5A4731192D
:0224E8000000F2
:0624EA00000000000000EC
:0A24F00000000000000000000000E2
:020000040030CA
:0100000001FE
:010001000EF0
:0100020019E4
:010003001EDE
:010005008377
:010006008178
:00000001FF
